{
  "_format": "hh-sol-artifact-1",
  "contractName": "AccountFactory",
  "sourceName": "contracts/AccountFactory.sol",
  "abi": [
    {
      "inputs": [
        {
          "internalType": "address",
          "name": "impl_",
          "type": "address"
        }
      ],
      "stateMutability": "nonpayable",
      "type": "constructor"
    },
    {
      "inputs": [
        {
          "internalType": "address",
          "name": "target",
          "type": "address"
        }
      ],
      "name": "AddressEmptyCode",
      "type": "error"
    },
    {
      "inputs": [],
      "name": "FailedCall",
      "type": "error"
    },
    {
      "inputs": [],
      "name": "FailedDeployment",
      "type": "error"
    },
    {
      "inputs": [
        {
          "internalType": "uint256",
          "name": "balance",
          "type": "uint256"
        },
        {
          "internalType": "uint256",
          "name": "needed",
          "type": "uint256"
        }
      ],
      "name": "InsufficientBalance",
      "type": "error"
    },
    {
      "inputs": [
        {
          "internalType": "bytes32",
          "name": "salt",
          "type": "bytes32"
        },
        {
          "internalType": "bytes",
          "name": "callData",
          "type": "bytes"
        }
      ],
      "name": "cloneAndInitialize",
      "outputs": [
        {
          "internalType": "address",
          "name": "",
          "type": "address"
        }
      ],
      "stateMutability": "nonpayable",
      "type": "function"
    },
    {
      "inputs": [
        {
          "internalType": "bytes32",
          "name": "salt",
          "type": "bytes32"
        },
        {
          "internalType": "bytes",
          "name": "callData",
          "type": "bytes"
        }
      ],
      "name": "predictAddress",
      "outputs": [
        {
          "internalType": "address",
          "name": "",
          "type": "address"
        },
        {
          "internalType": "bytes32",
          "name": "",
          "type": "bytes32"
        }
      ],
      "stateMutability": "view",
      "type": "function"
    }
  ],
  "bytecode": "0x60a060405234801561001057600080fd5b506040516109c03803806109c0833981810160405281019061003291906100cf565b8073ffffffffffffffffffffffffffffffffffffffff1660808173ffffffffffffffffffffffffffffffffffffffff1681525050506100fc565b600080fd5b600073ffffffffffffffffffffffffffffffffffffffff82169050919050565b600061009c82610071565b9050919050565b6100ac81610091565b81146100b757600080fd5b50565b6000815190506100c9816100a3565b92915050565b6000602082840312156100e5576100e461006c565b5b60006100f3848285016100ba565b91505092915050565b6080516108a361011d6000396000818160cb015261015601526108a36000f3fe608060405234801561001057600080fd5b50600436106100365760003560e01c8063c5a635701461003b578063e2f03bba1461006b575b600080fd5b61005560048036038101906100509190610630565b61009c565b60405161006291906106d1565b60405180910390f35b61008560048036038101906100809190610630565b6100b2565b6040516100939291906106fb565b60405180910390f35b60006100a984848461011d565b90509392505050565b60008060006100c2868686610215565b905061010f81307f000000000000000000000000000000000000000000000000000000000000000073ffffffffffffffffffffffffffffffffffffffff1661024b9092919063ffffffff16565b819250925050935093915050565b600080600061012d8686866100b2565b9150915060008273ffffffffffffffffffffffffffffffffffffffff163b0361020957610199817f000000000000000000000000000000000000000000000000000000000000000073ffffffffffffffffffffffffffffffffffffffff166102c290919063ffffffff16565b5061020785858080601f016020809104026020016040519081016040528093929190818152602001838380828437600081840152601f19601f820116905080830192505050505050508373ffffffffffffffffffffffffffffffffffffffff166102d890919063ffffffff16565b505b81925050509392505050565b600083838360405160200161022c93929190610784565b6040516020818303038152906040528051906020012090509392505050565b60006040518260388201526f5af43d82803e903d91602b57fd5bf3ff6024820152846014820152733d602d80600a3d3981f3363d3d373d3d3d363d7381528360588201526037600c820120607882015273ffffffffffffffffffffffffffffffffffffffff60556043830120169150509392505050565b60006102d0838360006102ee565b905092915050565b60606102e6838360006103e8565b905092915050565b6000814710156103375747826040517fcf47918100000000000000000000000000000000000000000000000000000000815260040161032e9291906107c7565b60405180910390fd5b763d602d80600a3d3981f3363d3d373d3d3d363d730000008460601b60e81c176000526e5af43d82803e903d91602b57fd5bf38460781b17602052826037600984f59050600073ffffffffffffffffffffffffffffffffffffffff168173ffffffffffffffffffffffffffffffffffffffff16036103e1576040517fb06ebf3d00000000000000000000000000000000000000000000000000000000815260040160405180910390fd5b9392505050565b6060814710156104315747826040517fcf4791810000000000000000000000000000000000000000000000000000000081526004016104289291906107c7565b60405180910390fd5b6000808573ffffffffffffffffffffffffffffffffffffffff16848660405161045a9190610856565b60006040518083038185875af1925050503d8060008114610497576040519150601f19603f3d011682016040523d82523d6000602084013e61049c565b606091505b50915091506104ac8683836104b7565b925050509392505050565b6060826104cc576104c782610546565b61053e565b600082511480156104f4575060008473ffffffffffffffffffffffffffffffffffffffff163b145b1561053657836040517f9996b31500000000000000000000000000000000000000000000000000000000815260040161052d91906106d1565b60405180910390fd5b81905061053f565b5b9392505050565b6000815111156105595780518082602001fd5b6040517fd6bda27500000000000000000000000000000000000000000000000000000000815260040160405180910390fd5b600080fd5b600080fd5b6000819050919050565b6105a881610595565b81146105b357600080fd5b50565b6000813590506105c58161059f565b92915050565b600080fd5b600080fd5b600080fd5b60008083601f8401126105f0576105ef6105cb565b5b8235905067ffffffffffffffff81111561060d5761060c6105d0565b5b602083019150836001820283011115610629576106286105d5565b5b9250929050565b6000806000604084860312156106495761064861058b565b5b6000610657868287016105b6565b935050602084013567ffffffffffffffff81111561067857610677610590565b5b610684868287016105da565b92509250509250925092565b600073ffffffffffffffffffffffffffffffffffffffff82169050919050565b60006106bb82610690565b9050919050565b6106cb816106b0565b82525050565b60006020820190506106e660008301846106c2565b92915050565b6106f581610595565b82525050565b600060408201905061071060008301856106c2565b61071d60208301846106ec565b9392505050565b6000819050919050565b61073f61073a82610595565b610724565b82525050565b600081905092915050565b82818337600083830152505050565b600061076b8385610745565b9350610778838584610750565b82840190509392505050565b6000610790828661072e565b6020820191506107a182848661075f565b9150819050949350505050565b6000819050919050565b6107c1816107ae565b82525050565b60006040820190506107dc60008301856107b8565b6107e960208301846107b8565b9392505050565b600081519050919050565b60005b838110156108195780820151818401526020810190506107fe565b60008484015250505050565b6000610830826107f0565b61083a8185610745565b935061084a8185602086016107fb565b80840191505092915050565b60006108628284610825565b91508190509291505056fea264697066735822122042227ea554529bac3e8df3385e3214150d9cfaaeca86c00221edbcbcff8e9b3e64736f6c634300081c0033",
  "linkReferences": {},
  "deployedLinkReferences": {}
}