{
  "_format": "hh-sol-artifact-1",
  "contractName": "AccountERC7702",
  "sourceName": "contracts/AccountERC7702.sol",
  "abi": [
    {
      "inputs": [],
      "stateMutability": "nonpayable",
      "type": "constructor"
    },
    {
      "inputs": [
        {
          "internalType": "address",
          "name": "sender",
          "type": "address"
        }
      ],
      "name": "AccountUnauthorized",
      "type": "error"
    },
    {
      "inputs": [],
      "name": "ERC7579DecodingError",
      "type": "error"
    },
    {
      "inputs": [
        {
          "internalType": "ExecType",
          "name": "execType",
          "type": "bytes1"
        }
      ],
      "name": "ERC7579UnsupportedExecType",
      "type": "error"
    },
    {
      "inputs": [],
      "name": "FailedCall",
      "type": "error"
    },
    {
      "inputs": [],
      "name": "InvalidShortString",
      "type": "error"
    },
    {
      "inputs": [],
      "name": "OutOfRangeAccess",
      "type": "error"
    },
    {
      "inputs": [
        {
          "internalType": "string",
          "name": "str",
          "type": "string"
        }
      ],
      "name": "StringTooLong",
      "type": "error"
    },
    {
      "inputs": [],
      "name": "UnsupportedExecutionMode",
      "type": "error"
    },
    {
      "anonymous": false,
      "inputs": [],
      "name": "EIP712DomainChanged",
      "type": "event"
    },
    {
      "anonymous": false,
      "inputs": [
        {
          "indexed": false,
          "internalType": "uint256",
          "name": "batchExecutionIndex",
          "type": "uint256"
        },
        {
          "indexed": false,
          "internalType": "bytes",
          "name": "returndata",
          "type": "bytes"
        }
      ],
      "name": "ERC7579TryExecuteFail",
      "type": "event"
    },
    {
      "inputs": [],
      "name": "eip712Domain",
      "outputs": [
        {
          "internalType": "bytes1",
          "name": "fields",
          "type": "bytes1"
        },
        {
          "internalType": "string",
          "name": "name",
          "type": "string"
        },
        {
          "internalType": "string",
          "name": "version",
          "type": "string"
        },
        {
          "internalType": "uint256",
          "name": "chainId",
          "type": "uint256"
        },
        {
          "internalType": "address",
          "name": "verifyingContract",
          "type": "address"
        },
        {
          "internalType": "bytes32",
          "name": "salt",
          "type": "bytes32"
        },
        {
          "internalType": "uint256[]",
          "name": "extensions",
          "type": "uint256[]"
        }
      ],
      "stateMutability": "view",
      "type": "function"
    },
    {
      "inputs": [],
      "name": "entryPoint",
      "outputs": [
        {
          "internalType": "contract IEntryPoint",
          "name": "",
          "type": "address"
        }
      ],
      "stateMutability": "view",
      "type": "function"
    },
    {
      "inputs": [
        {
          "internalType": "bytes32",
          "name": "mode",
          "type": "bytes32"
        },
        {
          "internalType": "bytes",
          "name": "executionData",
          "type": "bytes"
        }
      ],
      "name": "execute",
      "outputs": [],
      "stateMutability": "payable",
      "type": "function"
    },
    {
      "inputs": [
        {
          "internalType": "uint192",
          "name": "key",
          "type": "uint192"
        }
      ],
      "name": "getNonce",
      "outputs": [
        {
          "internalType": "uint256",
          "name": "",
          "type": "uint256"
        }
      ],
      "stateMutability": "view",
      "type": "function"
    },
    {
      "inputs": [],
      "name": "getNonce",
      "outputs": [
        {
          "internalType": "uint256",
          "name": "",
          "type": "uint256"
        }
      ],
      "stateMutability": "view",
      "type": "function"
    },
    {
      "inputs": [
        {
          "internalType": "bytes32",
          "name": "hash",
          "type": "bytes32"
        },
        {
          "internalType": "bytes",
          "name": "signature",
          "type": "bytes"
        }
      ],
      "name": "isValidSignature",
      "outputs": [
        {
          "internalType": "bytes4",
          "name": "result",
          "type": "bytes4"
        }
      ],
      "stateMutability": "view",
      "type": "function"
    },
    {
      "inputs": [
        {
          "internalType": "address",
          "name": "",
          "type": "address"
        },
        {
          "internalType": "address",
          "name": "",
          "type": "address"
        },
        {
          "internalType": "uint256[]",
          "name": "",
          "type": "uint256[]"
        },
        {
          "internalType": "uint256[]",
          "name": "",
          "type": "uint256[]"
        },
        {
          "internalType": "bytes",
          "name": "",
          "type": "bytes"
        }
      ],
      "name": "onERC1155BatchReceived",
      "outputs": [
        {
          "internalType": "bytes4",
          "name": "",
          "type": "bytes4"
        }
      ],
      "stateMutability": "nonpayable",
      "type": "function"
    },
    {
      "inputs": [
        {
          "internalType": "address",
          "name": "",
          "type": "address"
        },
        {
          "internalType": "address",
          "name": "",
          "type": "address"
        },
        {
          "internalType": "uint256",
          "name": "",
          "type": "uint256"
        },
        {
          "internalType": "uint256",
          "name": "",
          "type": "uint256"
        },
        {
          "internalType": "bytes",
          "name": "",
          "type": "bytes"
        }
      ],
      "name": "onERC1155Received",
      "outputs": [
        {
          "internalType": "bytes4",
          "name": "",
          "type": "bytes4"
        }
      ],
      "stateMutability": "nonpayable",
      "type": "function"
    },
    {
      "inputs": [
        {
          "internalType": "address",
          "name": "",
          "type": "address"
        },
        {
          "internalType": "address",
          "name": "",
          "type": "address"
        },
        {
          "internalType": "uint256",
          "name": "",
          "type": "uint256"
        },
        {
          "internalType": "bytes",
          "name": "",
          "type": "bytes"
        }
      ],
      "name": "onERC721Received",
      "outputs": [
        {
          "internalType": "bytes4",
          "name": "",
          "type": "bytes4"
        }
      ],
      "stateMutability": "nonpayable",
      "type": "function"
    },
    {
      "inputs": [
        {
          "internalType": "bytes32",
          "name": "mode",
          "type": "bytes32"
        }
      ],
      "name": "supportsExecutionMode",
      "outputs": [
        {
          "internalType": "bool",
          "name": "result",
          "type": "bool"
        }
      ],
      "stateMutability": "view",
      "type": "function"
    },
    {
      "inputs": [
        {
          "internalType": "bytes4",
          "name": "interfaceId",
          "type": "bytes4"
        }
      ],
      "name": "supportsInterface",
      "outputs": [
        {
          "internalType": "bool",
          "name": "",
          "type": "bool"
        }
      ],
      "stateMutability": "view",
      "type": "function"
    },
    {
      "inputs": [
        {
          "components": [
            {
              "internalType": "address",
              "name": "sender",
              "type": "address"
            },
            {
              "internalType": "uint256",
              "name": "nonce",
              "type": "uint256"
            },
            {
              "internalType": "bytes",
              "name": "initCode",
              "type": "bytes"
            },
            {
              "internalType": "bytes",
              "name": "callData",
              "type": "bytes"
            },
            {
              "internalType": "bytes32",
              "name": "accountGasLimits",
              "type": "bytes32"
            },
            {
              "internalType": "uint256",
              "name": "preVerificationGas",
              "type": "uint256"
            },
            {
              "internalType": "bytes32",
              "name": "gasFees",
              "type": "bytes32"
            },
            {
              "internalType": "bytes",
              "name": "paymasterAndData",
              "type": "bytes"
            },
            {
              "internalType": "bytes",
              "name": "signature",
              "type": "bytes"
            }
          ],
          "internalType": "struct PackedUserOperation",
          "name": "userOp",
          "type": "tuple"
        },
        {
          "internalType": "bytes32",
          "name": "userOpHash",
          "type": "bytes32"
        },
        {
          "internalType": "uint256",
          "name": "missingAccountFunds",
          "type": "uint256"
        }
      ],
      "name": "validateUserOp",
      "outputs": [
        {
          "internalType": "uint256",
          "name": "",
          "type": "uint256"
        }
      ],
      "stateMutability": "nonpayable",
      "type": "function"
    },
    {
      "stateMutability": "payable",
      "type": "receive"
    }
  ],
  "bytecode": "0x61016060405234801561001157600080fd5b506040518060400160405280600981526020017f4d794163636f756e7400000000000000000000000000000000000000000000008152506040518060400160405280600181526020017f310000000000000000000000000000000000000000000000000000000000000081525061009260008361012d60201b90919060201c565b61012081815250506100ae60018261012d60201b90919060201c565b6101408181525050818051906020012060e08181525050808051906020012061010081815250504660a081815250506100eb61017d60201b60201c565b608081815250503073ffffffffffffffffffffffffffffffffffffffff1660c08173ffffffffffffffffffffffffffffffffffffffff16815250505050610766565b600060208351101561014f57610148836101d860201b60201c565b9050610177565b8261015f8361024060201b60201c565b600001908161016e919061049a565b5060ff60001b90505b92915050565b60007f8b73c3c69bb8fe3d512ecc4cf759cc79239f7b179b0ffacaa9a75d522b39400f60e0516101005146306040516020016101bd9594939291906105d5565b60405160208183030381529060405280519060200120905090565b600080829050601f8151111561022557826040517f305a27a900000000000000000000000000000000000000000000000000000000815260040161021c91906106ad565b60405180910390fd5b805181610231906106ff565b60001c1760001b915050919050565b6000819050919050565b600081519050919050565b7f4e487b7100000000000000000000000000000000000000000000000000000000600052604160045260246000fd5b7f4e487b7100000000000000000000000000000000000000000000000000000000600052602260045260246000fd5b600060028204905060018216806102cb57607f821691505b6020821081036102de576102dd610284565b5b50919050565b60008190508160005260206000209050919050565b60006020601f8301049050919050565b600082821b905092915050565b6000600883026103467fffffffffffffffffffffffffffffffffffffffffffffffffffffffffffffffff82610309565b6103508683610309565b95508019841693508086168417925050509392505050565b6000819050919050565b6000819050919050565b600061039761039261038d84610368565b610372565b610368565b9050919050565b6000819050919050565b6103b18361037c565b6103c56103bd8261039e565b848454610316565b825550505050565b600090565b6103da6103cd565b6103e58184846103a8565b505050565b5b81811015610409576103fe6000826103d2565b6001810190506103eb565b5050565b601f82111561044e5761041f816102e4565b610428846102f9565b81016020851015610437578190505b61044b610443856102f9565b8301826103ea565b50505b505050565b600082821c905092915050565b600061047160001984600802610453565b1980831691505092915050565b600061048a8383610460565b9150826002028217905092915050565b6104a38261024a565b67ffffffffffffffff8111156104bc576104bb610255565b5b6104c682546102b3565b6104d182828561040d565b600060209050601f83116001811461050457600084156104f2578287015190505b6104fc858261047e565b865550610564565b601f198416610512866102e4565b60005b8281101561053a57848901518255600182019150602085019450602081019050610515565b868310156105575784890151610553601f891682610460565b8355505b6001600288020188555050505b505050505050565b6000819050919050565b61057f8161056c565b82525050565b61058e81610368565b82525050565b600073ffffffffffffffffffffffffffffffffffffffff82169050919050565b60006105bf82610594565b9050919050565b6105cf816105b4565b82525050565b600060a0820190506105ea6000830188610576565b6105f76020830187610576565b6106046040830186610576565b6106116060830185610585565b61061e60808301846105c6565b9695505050505050565b600082825260208201905092915050565b60005b8381101561065757808201518184015260208101905061063c565b60008484015250505050565b6000601f19601f8301169050919050565b600061067f8261024a565b6106898185610628565b9350610699818560208601610639565b6106a281610663565b840191505092915050565b600060208201905081810360008301526106c78184610674565b905092915050565b600081519050919050565b6000819050602082019050919050565b60006106f6825161056c565b80915050919050565b600061070a826106cf565b82610714846106da565b905061071f816106ea565b9250602082101561075f5761075a7fffffffffffffffffffffffffffffffffffffffffffffffffffffffffffffffff83602003600802610309565b831692505b5050919050565b60805160a05160c05160e0516101005161012051610140516130b06107c06000396000610a0b015260006109d0015260006118720152600061185101526000610fdf015260006110350152600061105e01526130b06000f3fe6080604052600436106100ab5760003560e01c8063b0d691fe11610064578063b0d691fe14610219578063bc197c8114610244578063d03c791414610281578063d087d288146102be578063e9ae5c53146102e9578063f23a6e6114610305576100b2565b806301ffc9a7146100b7578063150b7a02146100f45780631626ba7e1461013157806319822f7c1461016e5780633e1b0812146101ab57806384b0196e146101e8576100b2565b366100b257005b600080fd5b3480156100c357600080fd5b506100de60048036038101906100d99190611e36565b610342565b6040516100eb9190611e7e565b60405180910390f35b34801561010057600080fd5b5061011b60048036038101906101169190612073565b6103bc565b6040516101289190612105565b60405180910390f35b34801561013d57600080fd5b50610158600480360381019061015391906121b6565b6103d0565b6040516101659190612105565b60405180910390f35b34801561017a57600080fd5b506101956004803603810190610190919061223b565b610459565b6040516101a291906122b9565b60405180910390f35b3480156101b757600080fd5b506101d260048036038101906101cd9190612324565b610485565b6040516101df91906122b9565b60405180910390f35b3480156101f457600080fd5b506101fd610511565b60405161021097969594939291906124e7565b60405180910390f35b34801561022557600080fd5b5061022e6105bb565b60405161023b91906125ca565b60405180910390f35b34801561025057600080fd5b5061026b600480360381019061026691906126a8565b6105d7565b6040516102789190612105565b60405180910390f35b34801561028d57600080fd5b506102a860048036038101906102a39190612777565b6105ec565b6040516102b59190611e7e565b60405180910390f35b3480156102ca57600080fd5b506102d3610646565b6040516102e091906122b9565b60405180910390f35b61030360048036038101906102fe91906121b6565b610657565b005b34801561031157600080fd5b5061032c600480360381019061032791906127a4565b610702565b6040516103399190612105565b60405180910390f35b60007f4e2312e0000000000000000000000000000000000000000000000000000000007bffffffffffffffffffffffffffffffffffffffffffffffffffffffff1916827bffffffffffffffffffffffffffffffffffffffffffffffffffffffff191614806103b557506103b482610717565b5b9050919050565b600063150b7a0260e01b9050949350505050565b60006103dd848484610781565b806103ef57506103ee84848461085c565b5b610447577f773977397739773977397739773977397739773977397739773977397739773960001b841480156104285750600083839050145b6104395763ffffffff60e01b610442565b637739000160e01b5b610450565b631626ba7e60e01b5b90509392505050565b6000610463610893565b600061046f8585610912565b905061047a8361094d565b809150509392505050565b600061048f6105bb565b73ffffffffffffffffffffffffffffffffffffffff166335567e1a30846040518363ffffffff1660e01b81526004016104c992919061284a565b602060405180830381865afa1580156104e6573d6000803e3d6000fd5b505050506040513d601f19601f8201168201806040525081019061050a9190612888565b9050919050565b6000606080600080600060606105256109c7565b61052d610a02565b46306000801b600067ffffffffffffffff81111561054e5761054d611f48565b5b60405190808252806020026020018201604052801561057c5781602001602082028036833780820191505090505b507f0f00000000000000000000000000000000000000000000000000000000000000959493929190965096509650965096509650965090919293949596565b6000734337084d9e255ff0702461cf8895ce9e3b5ff108905090565b600063bc197c8160e01b905095945050505050565b6000806000806105fb85610a3d565b5092509250925061061083600160f81b610a7e565b8015610626575061062582600060f81b610acf565b5b801561063c575061063b81600060e01b610b20565b5b9350505050919050565b60006106526000610485565b905090565b61066333848484610b6b565b6106a457336040517f7cf8632b00000000000000000000000000000000000000000000000000000000815260040161069b91906128b5565b60405180910390fd5b6106ad836105ec565b6106e3576040517f7f18127500000000000000000000000000000000000000000000000000000000815260040160405180910390fd5b6106fc600060f81b8383610bc09290919263ffffffff16565b50505050565b600063f23a6e6160e01b905095945050505050565b60007f01ffc9a7000000000000000000000000000000000000000000000000000000007bffffffffffffffffffffffffffffffffffffffffffffffffffffffff1916827bffffffffffffffffffffffffffffffffffffffffffffffffffffffff1916149050919050565b60003660008060003660006107968989610d05565b95509550955095509550955060008060008060006107b2610511565b5095509550955095509550506107d1888a610e5090919063ffffffff16565b8f1480156107e3575060008787905014155b8015610848575061084761084061083189898c8a805190602001208a805190602001208a8a8a60405160200161081d9594939291906128d0565b604051602081830303815290604052610e91565b8b610e5090919063ffffffff16565b8c8c610ec7565b5b9b5050505050505050505050509392505050565b600061088a61088361086d86610f89565b610875610fdb565b610e5090919063ffffffff16565b8484610ec7565b90509392505050565b60003390506108a06105bb565b73ffffffffffffffffffffffffffffffffffffffff168173ffffffffffffffffffffffffffffffffffffffff161461090f57806040517f7cf8632b00000000000000000000000000000000000000000000000000000000815260040161090691906128b5565b60405180910390fd5b50565b60006109376109218484611092565b848061010001906109329190612932565b610ec7565b610942576001610945565b60005b905092915050565b60008111156109c45760003373ffffffffffffffffffffffffffffffffffffffff168260405161097c906129c6565b60006040518083038185875af1925050503d80600081146109b9576040519150601f19603f3d011682016040523d82523d6000602084013e6109be565b606091505b50509050505b50565b60606109fd60007f000000000000000000000000000000000000000000000000000000000000000061109d90919063ffffffff16565b905090565b6060610a3860017f000000000000000000000000000000000000000000000000000000000000000061109d90919063ffffffff16565b905090565b600080600080610a4e85600061114d565b610a5986600161114d565b610a648760066111a2565b610a6f88600a6111f7565b93509350935093509193509193565b6000817effffffffffffffffffffffffffffffffffffffffffffffffffffffffffffff1916837effffffffffffffffffffffffffffffffffffffffffffffffffffffffffffff191614905092915050565b6000817effffffffffffffffffffffffffffffffffffffffffffffffffffffffffffff1916837effffffffffffffffffffffffffffffffffffffffffffffffffffffffffffff191614905092915050565b6000817bffffffffffffffffffffffffffffffffffffffffffffffffffffffff1916837bffffffffffffffffffffffffffffffffffffffffffffffffffffffff191614905092915050565b6000610b756105bb565b73ffffffffffffffffffffffffffffffffffffffff168573ffffffffffffffffffffffffffffffffffffffff161480610bb65750610bb58585858561124c565b5b9050949350505050565b6060366000610bcf8686611287565b915091508181905067ffffffffffffffff811115610bf057610bef611f48565b5b604051908082528060200260200182016040528015610c2357816020015b6060815260200190600190039081610c0e5790505b50925060005b82829050811015610cfb57610cd28186858585818110610c4c57610c4b6129db565b5b9050602002810190610c5e9190612a0a565b6000016020810190610c709190612a32565b868686818110610c8357610c826129db565b5b9050602002810190610c959190612a0a565b60200135878787818110610cac57610cab6129db565b5b9050602002810190610cbe9190612a0a565b8060400190610ccd9190612932565b6113c1565b848281518110610ce557610ce46129db565b5b6020026020010181905250806001019050610c29565b5050509392505050565b366000806000366000808888905090506042811015610d4f57610d2661148a565b600080610d31611498565b8360001b93508260001b925096509650965096509650965050610e46565b600060028203905060008a8a83908092610d6b93929190612a69565b90610d769190612ae8565b60f01c61ffff16905080604201831015610dbd57610d9261148a565b600080610d9d611498565b8360001b93508260001b9250985098509850985098509850505050610e46565b60008183039050600060208203905060006020820390508d8d6000908392610de793929190612a69565b9b509b508d8d82908492610dfd93929190612a69565b90610e089190612b47565b99508d8d83908592610e1c93929190612a69565b90610e279190612b47565b98508d8d84908792610e3b93929190612a69565b975097505050505050505b9295509295509295565b60006040517f190100000000000000000000000000000000000000000000000000000000000081528360028201528260228201526042812091505092915050565b6000366000366000610ea389896114a6565b9350935093509350610eb9848484848b8b611778565b945050505050949350505050565b6000806000610f1a8686868080601f016020809104026020016040519081016040528093929190818152602001838380828437600081840152601f19601f820116905080830192505050505050506117d0565b50915091508173ffffffffffffffffffffffffffffffffffffffff163073ffffffffffffffffffffffffffffffffffffffff16148015610f7e575060006003811115610f6957610f68612ba6565b5b816003811115610f7c57610f7b612ba6565b5b145b925050509392505050565b60007f983e65e5148e570cd828ead231ee759a8d7958721a768f93bc4483ba005c32de82604051602001610fbe929190612bd5565b604051602081830303815290604052805190602001209050919050565b60007f000000000000000000000000000000000000000000000000000000000000000073ffffffffffffffffffffffffffffffffffffffff163073ffffffffffffffffffffffffffffffffffffffff1614801561105757507f000000000000000000000000000000000000000000000000000000000000000046145b15611084577f0000000000000000000000000000000000000000000000000000000000000000905061108f565b61108c61182c565b90505b90565b600081905092915050565b606060ff60001b83146110ba576110b3836118c2565b9050611147565b8180546110c690612c2d565b80601f01602080910402602001604051908101604052809291908181526020018280546110f290612c2d565b801561113f5780601f106111145761010080835404028352916020019161113f565b820191906000526020600020905b81548152906001019060200180831161112257829003601f168201915b505050505090505b92915050565b6000601f8260ff16111561118d576040517f3ba9763600000000000000000000000000000000000000000000000000000000815260040160405180910390fd5b60001960f81b83836008021b16905092915050565b6000601c8260ff1611156111e2576040517f3ba9763600000000000000000000000000000000000000000000000000000000815260040160405180910390fd5b60001960e01b83836008021b16905092915050565b6000600a8260ff161115611237576040517f3ba9763600000000000000000000000000000000000000000000000000000000815260040160405180910390fd5b60001960501b83836008021b16905092915050565b60003073ffffffffffffffffffffffffffffffffffffffff168573ffffffffffffffffffffffffffffffffffffffff16149050949350505050565b3660008084849050905060208110156112cc576040517feb0bcc5d00000000000000000000000000000000000000000000000000000000815260040160405180910390fd5b600085856000906020926112e293929190612a69565b906112ed9190612b47565b60001c90506020820381111561132f576040517feb0bcc5d00000000000000000000000000000000000000000000000000000000815260040160405180910390fd5b600086868390602085019261134693929190612a69565b906113519190612b47565b60001c905067ffffffffffffffff8016811180611375575060208102602083850303105b156113ac576040517feb0bcc5d00000000000000000000000000000000000000000000000000000000815260040160405180910390fd5b60208288010194508093505050509250929050565b6060600080600073ffffffffffffffffffffffffffffffffffffffff168773ffffffffffffffffffffffffffffffffffffffff16146114005786611402565b305b73ffffffffffffffffffffffffffffffffffffffff16868686604051611429929190612c83565b60006040518083038185875af1925050503d8060008114611466576040519150601f19603f3d011682016040523d82523d6000602084013e61146b565b606091505b509150915061147c89898484611936565b925050509695505050505050565b366000809150600090509091565b366000809150600090509091565b3660003660003660008787915091506000828290500315611754577f29000000000000000000000000000000000000000000000000000000000000007effffffffffffffffffffffffffffffffffffffffffffffffffffffffffffff191682826001858590506115169190612ccb565b818110611526576115256129db565b5b9050013560f81c60f81b7effffffffffffffffffffffffffffffffffffffffffffffffffffffffffffff19160361164b5760005b8282905081101561164557600083838381811061157a576115796129db565b5b9050013560f81c60f81b90507f28000000000000000000000000000000000000000000000000000000000000007effffffffffffffffffffffffffffffffffffffffffffffffffffffffffffff1916817effffffffffffffffffffffffffffffffffffffffffffffffffffffffffffff19160361162557600082036115ff5750611645565b8383600090849261161293929190612a69565b8b8b97509750975097505050505061176f565b61162e816119fb565b156116395750611645565b5080600101905061155a565b50611753565b60008282905090505b6000811115611751576000838360018461166e9190612ccb565b81811061167e5761167d6129db565b5b9050013560f81c60f81b90507f29000000000000000000000000000000000000000000000000000000000000007effffffffffffffffffffffffffffffffffffffffffffffffffffffffffffff1916817effffffffffffffffffffffffffffffffffffffffffffffffffffffffffffff19160361172b5783838390809261170793929190612a69565b8585600090869261171a93929190612a69565b97509750975097505050505061176f565b611734816119fb565b1561173f5750611751565b508061174a90612cff565b9050611654565b505b5b61175c611498565b611764611498565b955095509550955050505b92959194509250565b60008087879050146117bf5761179087878787611be4565b83836040516020016117a493929190612d85565b604051602081830303815290604052805190602001206117c4565b6000801b5b90509695505050505050565b600080600060418451036118155760008060006020870151925060408701519150606087015160001a905061180788828585611c1d565b955095509550505050611825565b60006002855160001b9250925092505b9250925092565b60007f8b73c3c69bb8fe3d512ecc4cf759cc79239f7b179b0ffacaa9a75d522b39400f7f00000000000000000000000000000000000000000000000000000000000000007f000000000000000000000000000000000000000000000000000000000000000046306040516020016118a7959493929190612dbe565b60405160208183030381529060405280519060200120905090565b606060006118cf83611d11565b90506000602067ffffffffffffffff8111156118ee576118ed611f48565b5b6040519080825280601f01601f1916602001820160405280156119205781602001600182028036833780820191505090505b5090508181528360208201528092505050919050565b606061194684600060f81b610acf565b1561195b576119558383611d61565b506119f0565b61196984600160f81b610acf565b156119b257826119ad577f2eea2f51f83910481f4b5ba28b7003a6e045d4b59f67dfff8d4c90119405008985836040516119a4929190612e5b565b60405180910390a15b6119ef565b836040517f23a240850000000000000000000000000000000000000000000000000000000081526004016119e69190612eac565b60405180910390fd5b5b819050949350505050565b60008060f81b827effffffffffffffffffffffffffffffffffffffffffffffffffffffffffffff19161480611a9357507f20000000000000000000000000000000000000000000000000000000000000007effffffffffffffffffffffffffffffffffffffffffffffffffffffffffffff1916827effffffffffffffffffffffffffffffffffffffffffffffffffffffffffffff1916145b80611b0157507f2c000000000000000000000000000000000000000000000000000000000000007effffffffffffffffffffffffffffffffffffffffffffffffffffffffffffff1916827effffffffffffffffffffffffffffffffffffffffffffffffffffffffffffff1916145b80611b6f57507f28000000000000000000000000000000000000000000000000000000000000007effffffffffffffffffffffffffffffffffffffffffffffffffffffffffffff1916827effffffffffffffffffffffffffffffffffffffffffffffffffffffffffffff1916145b80611bdd57507f29000000000000000000000000000000000000000000000000000000000000007effffffffffffffffffffffffffffffffffffffffffffffffffffffffffffff1916827effffffffffffffffffffffffffffffffffffffffffffffffffffffffffffff1916145b9050919050565b600084848484604051602001611bfd9493929190612fdb565b604051602081830303815290604052805190602001209050949350505050565b60008060007f7fffffffffffffffffffffffffffffff5d576e7357a4501ddfe92f46681b20a08460001c1115611c5d576000600385925092509250611d07565b600060018888888860405160008152602001604052604051611c829493929190613035565b6020604051602081039080840390855afa158015611ca4573d6000803e3d6000fd5b505050602060405103519050600073ffffffffffffffffffffffffffffffffffffffff168173ffffffffffffffffffffffffffffffffffffffff1603611cf857600060016000801b93509350935050611d07565b8060008060001b935093509350505b9450945094915050565b60008060ff8360001c169050601f811115611d58576040517fb3512b0c00000000000000000000000000000000000000000000000000000000815260040160405180910390fd5b80915050919050565b606082611d7657611d7182611d85565b611d7e565b819050611d7f565b5b92915050565b600081511115611d985780518082602001fd5b6040517fd6bda27500000000000000000000000000000000000000000000000000000000815260040160405180910390fd5b6000604051905090565b600080fd5b600080fd5b60007fffffffff0000000000000000000000000000000000000000000000000000000082169050919050565b611e1381611dde565b8114611e1e57600080fd5b50565b600081359050611e3081611e0a565b92915050565b600060208284031215611e4c57611e4b611dd4565b5b6000611e5a84828501611e21565b91505092915050565b60008115159050919050565b611e7881611e63565b82525050565b6000602082019050611e936000830184611e6f565b92915050565b600073ffffffffffffffffffffffffffffffffffffffff82169050919050565b6000611ec482611e99565b9050919050565b611ed481611eb9565b8114611edf57600080fd5b50565b600081359050611ef181611ecb565b92915050565b6000819050919050565b611f0a81611ef7565b8114611f1557600080fd5b50565b600081359050611f2781611f01565b92915050565b600080fd5b600080fd5b6000601f19601f8301169050919050565b7f4e487b7100000000000000000000000000000000000000000000000000000000600052604160045260246000fd5b611f8082611f37565b810181811067ffffffffffffffff82111715611f9f57611f9e611f48565b5b80604052505050565b6000611fb2611dca565b9050611fbe8282611f77565b919050565b600067ffffffffffffffff821115611fde57611fdd611f48565b5b611fe782611f37565b9050602081019050919050565b82818337600083830152505050565b600061201661201184611fc3565b611fa8565b90508281526020810184848401111561203257612031611f32565b5b61203d848285611ff4565b509392505050565b600082601f83011261205a57612059611f2d565b5b813561206a848260208601612003565b91505092915050565b6000806000806080858703121561208d5761208c611dd4565b5b600061209b87828801611ee2565b94505060206120ac87828801611ee2565b93505060406120bd87828801611f18565b925050606085013567ffffffffffffffff8111156120de576120dd611dd9565b5b6120ea87828801612045565b91505092959194509250565b6120ff81611dde565b82525050565b600060208201905061211a60008301846120f6565b92915050565b6000819050919050565b61213381612120565b811461213e57600080fd5b50565b6000813590506121508161212a565b92915050565b600080fd5b600080fd5b60008083601f84011261217657612175611f2d565b5b8235905067ffffffffffffffff81111561219357612192612156565b5b6020830191508360018202830111156121af576121ae61215b565b5b9250929050565b6000806000604084860312156121cf576121ce611dd4565b5b60006121dd86828701612141565b935050602084013567ffffffffffffffff8111156121fe576121fd611dd9565b5b61220a86828701612160565b92509250509250925092565b600080fd5b6000610120828403121561223257612231612216565b5b81905092915050565b60008060006060848603121561225457612253611dd4565b5b600084013567ffffffffffffffff81111561227257612271611dd9565b5b61227e8682870161221b565b935050602061228f86828701612141565b92505060406122a086828701611f18565b9150509250925092565b6122b381611ef7565b82525050565b60006020820190506122ce60008301846122aa565b92915050565b600077ffffffffffffffffffffffffffffffffffffffffffffffff82169050919050565b612301816122d4565b811461230c57600080fd5b50565b60008135905061231e816122f8565b92915050565b60006020828403121561233a57612339611dd4565b5b60006123488482850161230f565b91505092915050565b60007fff0000000000000000000000000000000000000000000000000000000000000082169050919050565b61238681612351565b82525050565b600081519050919050565b600082825260208201905092915050565b60005b838110156123c65780820151818401526020810190506123ab565b60008484015250505050565b60006123dd8261238c565b6123e78185612397565b93506123f78185602086016123a8565b61240081611f37565b840191505092915050565b61241481611eb9565b82525050565b61242381612120565b82525050565b600081519050919050565b600082825260208201905092915050565b6000819050602082019050919050565b61245e81611ef7565b82525050565b60006124708383612455565b60208301905092915050565b6000602082019050919050565b600061249482612429565b61249e8185612434565b93506124a983612445565b8060005b838110156124da5781516124c18882612464565b97506124cc8361247c565b9250506001810190506124ad565b5085935050505092915050565b600060e0820190506124fc600083018a61237d565b818103602083015261250e81896123d2565b9050818103604083015261252281886123d2565b905061253160608301876122aa565b61253e608083018661240b565b61254b60a083018561241a565b81810360c083015261255d8184612489565b905098975050505050505050565b6000819050919050565b600061259061258b61258684611e99565b61256b565b611e99565b9050919050565b60006125a282612575565b9050919050565b60006125b482612597565b9050919050565b6125c4816125a9565b82525050565b60006020820190506125df60008301846125bb565b92915050565b600067ffffffffffffffff821115612600576125ff611f48565b5b602082029050602081019050919050565b600061262461261f846125e5565b611fa8565b905080838252602082019050602084028301858111156126475761264661215b565b5b835b81811015612670578061265c8882611f18565b845260208401935050602081019050612649565b5050509392505050565b600082601f83011261268f5761268e611f2d565b5b813561269f848260208601612611565b91505092915050565b600080600080600060a086880312156126c4576126c3611dd4565b5b60006126d288828901611ee2565b95505060206126e388828901611ee2565b945050604086013567ffffffffffffffff81111561270457612703611dd9565b5b6127108882890161267a565b935050606086013567ffffffffffffffff81111561273157612730611dd9565b5b61273d8882890161267a565b925050608086013567ffffffffffffffff81111561275e5761275d611dd9565b5b61276a88828901612045565b9150509295509295909350565b60006020828403121561278d5761278c611dd4565b5b600061279b84828501612141565b91505092915050565b600080600080600060a086880312156127c0576127bf611dd4565b5b60006127ce88828901611ee2565b95505060206127df88828901611ee2565b94505060406127f088828901611f18565b935050606061280188828901611f18565b925050608086013567ffffffffffffffff81111561282257612821611dd9565b5b61282e88828901612045565b9150509295509295909350565b612844816122d4565b82525050565b600060408201905061285f600083018561240b565b61286c602083018461283b565b9392505050565b60008151905061288281611f01565b92915050565b60006020828403121561289e5761289d611dd4565b5b60006128ac84828501612873565b91505092915050565b60006020820190506128ca600083018461240b565b92915050565b600060a0820190506128e5600083018861241a565b6128f2602083018761241a565b6128ff60408301866122aa565b61290c606083018561240b565b612919608083018461241a565b9695505050505050565b600080fd5b600080fd5b600080fd5b6000808335600160200384360303811261294f5761294e612923565b5b80840192508235915067ffffffffffffffff82111561297157612970612928565b5b60208301925060018202360383131561298d5761298c61292d565b5b509250929050565b600081905092915050565b50565b60006129b0600083612995565b91506129bb826129a0565b600082019050919050565b60006129d1826129a3565b9150819050919050565b7f4e487b7100000000000000000000000000000000000000000000000000000000600052603260045260246000fd5b600082356001606003833603038112612a2657612a25612923565b5b80830191505092915050565b600060208284031215612a4857612a47611dd4565b5b6000612a5684828501611ee2565b91505092915050565b600080fd5b600080fd5b60008085851115612a7d57612a7c612a5f565b5b83861115612a8e57612a8d612a64565b5b6001850283019150848603905094509492505050565b600082905092915050565b60007fffff00000000000000000000000000000000000000000000000000000000000082169050919050565b600082821b905092915050565b6000612af48383612aa4565b82612aff8135612aaf565b92506002821015612b3f57612b3a7fffff00000000000000000000000000000000000000000000000000000000000083600203600802612adb565b831692505b505092915050565b6000612b538383612aa4565b82612b5e8135612120565b92506020821015612b9e57612b997fffffffffffffffffffffffffffffffffffffffffffffffffffffffffffffffff83602003600802612adb565b831692505b505092915050565b7f4e487b7100000000000000000000000000000000000000000000000000000000600052602160045260246000fd5b6000604082019050612bea600083018561241a565b612bf7602083018461241a565b9392505050565b7f4e487b7100000000000000000000000000000000000000000000000000000000600052602260045260246000fd5b60006002820490506001821680612c4557607f821691505b602082108103612c5857612c57612bfe565b5b50919050565b6000612c6a8385612995565b9350612c77838584611ff4565b82840190509392505050565b6000612c90828486612c5e565b91508190509392505050565b7f4e487b7100000000000000000000000000000000000000000000000000000000600052601160045260246000fd5b6000612cd682611ef7565b9150612ce183611ef7565b9250828203905081811115612cf957612cf8612c9c565b5b92915050565b6000612d0a82611ef7565b915060008203612d1d57612d1c612c9c565b5b600182039050919050565b6000819050919050565b612d43612d3e82612120565b612d28565b82525050565b600081519050919050565b6000612d5f82612d49565b612d698185612995565b9350612d798185602086016123a8565b80840191505092915050565b6000612d918286612d32565b602082019150612da18285612d32565b602082019150612db18284612d54565b9150819050949350505050565b600060a082019050612dd3600083018861241a565b612de0602083018761241a565b612ded604083018661241a565b612dfa60608301856122aa565b612e07608083018461240b565b9695505050505050565b600082825260208201905092915050565b6000612e2d82612d49565b612e378185612e11565b9350612e478185602086016123a8565b612e5081611f37565b840191505092915050565b6000604082019050612e7060008301856122aa565b8181036020830152612e828184612e22565b90509392505050565b6000612e9682612351565b9050919050565b612ea681612e8b565b82525050565b6000602082019050612ec16000830184612e9d565b92915050565b600081905092915050565b7f5479706564446174615369676e28000000000000000000000000000000000000600082015250565b6000612f08600e83612ec7565b9150612f1382612ed2565b600e82019050919050565b6000612f2a8385612ec7565b9350612f37838584611ff4565b82840190509392505050565b7f20636f6e74656e74732c737472696e67206e616d652c737472696e672076657260008201527f73696f6e2c75696e7432353620636861696e49642c616464726573732076657260208201527f696679696e67436f6e74726163742c627974657333322073616c742900000000604082015250565b6000612fc5605c83612ec7565b9150612fd082612f43565b605c82019050919050565b6000612fe682612efb565b9150612ff3828688612f1e565b9150612ffe82612fb8565b915061300b828486612f1e565b915081905095945050505050565b600060ff82169050919050565b61302f81613019565b82525050565b600060808201905061304a600083018761241a565b6130576020830186613026565b613064604083018561241a565b613071606083018461241a565b9594505050505056fea264697066735822122060fa8c755882a6e228b67c6531810089a366bc5ce87538161ae20b686ec65bdd64736f6c634300081c0033",
  "linkReferences": {},
  "deployedLinkReferences": {}
}