{
  "_format": "hh-sol-artifact-1",
  "contractName": "AccountECDSA",
  "sourceName": "contracts/AccountECDSA.sol",
  "abi": [
    {
      "inputs": [],
      "stateMutability": "nonpayable",
      "type": "constructor"
    },
    {
      "inputs": [
        {
          "internalType": "address",
          "name": "sender",
          "type": "address"
        }
      ],
      "name": "AccountUnauthorized",
      "type": "error"
    },
    {
      "inputs": [],
      "name": "ERC7579DecodingError",
      "type": "error"
    },
    {
      "inputs": [
        {
          "internalType": "ExecType",
          "name": "execType",
          "type": "bytes1"
        }
      ],
      "name": "ERC7579UnsupportedExecType",
      "type": "error"
    },
    {
      "inputs": [],
      "name": "FailedCall",
      "type": "error"
    },
    {
      "inputs": [],
      "name": "InvalidInitialization",
      "type": "error"
    },
    {
      "inputs": [],
      "name": "InvalidShortString",
      "type": "error"
    },
    {
      "inputs": [],
      "name": "NotInitializing",
      "type": "error"
    },
    {
      "inputs": [],
      "name": "OutOfRangeAccess",
      "type": "error"
    },
    {
      "inputs": [
        {
          "internalType": "string",
          "name": "str",
          "type": "string"
        }
      ],
      "name": "StringTooLong",
      "type": "error"
    },
    {
      "inputs": [],
      "name": "UnsupportedExecutionMode",
      "type": "error"
    },
    {
      "anonymous": false,
      "inputs": [],
      "name": "EIP712DomainChanged",
      "type": "event"
    },
    {
      "anonymous": false,
      "inputs": [
        {
          "indexed": false,
          "internalType": "uint256",
          "name": "batchExecutionIndex",
          "type": "uint256"
        },
        {
          "indexed": false,
          "internalType": "bytes",
          "name": "returndata",
          "type": "bytes"
        }
      ],
      "name": "ERC7579TryExecuteFail",
      "type": "event"
    },
    {
      "anonymous": false,
      "inputs": [
        {
          "indexed": false,
          "internalType": "uint64",
          "name": "version",
          "type": "uint64"
        }
      ],
      "name": "Initialized",
      "type": "event"
    },
    {
      "inputs": [],
      "name": "eip712Domain",
      "outputs": [
        {
          "internalType": "bytes1",
          "name": "fields",
          "type": "bytes1"
        },
        {
          "internalType": "string",
          "name": "name",
          "type": "string"
        },
        {
          "internalType": "string",
          "name": "version",
          "type": "string"
        },
        {
          "internalType": "uint256",
          "name": "chainId",
          "type": "uint256"
        },
        {
          "internalType": "address",
          "name": "verifyingContract",
          "type": "address"
        },
        {
          "internalType": "bytes32",
          "name": "salt",
          "type": "bytes32"
        },
        {
          "internalType": "uint256[]",
          "name": "extensions",
          "type": "uint256[]"
        }
      ],
      "stateMutability": "view",
      "type": "function"
    },
    {
      "inputs": [],
      "name": "entryPoint",
      "outputs": [
        {
          "internalType": "contract IEntryPoint",
          "name": "",
          "type": "address"
        }
      ],
      "stateMutability": "view",
      "type": "function"
    },
    {
      "inputs": [
        {
          "internalType": "bytes32",
          "name": "mode",
          "type": "bytes32"
        },
        {
          "internalType": "bytes",
          "name": "executionData",
          "type": "bytes"
        }
      ],
      "name": "execute",
      "outputs": [],
      "stateMutability": "payable",
      "type": "function"
    },
    {
      "inputs": [
        {
          "internalType": "uint192",
          "name": "key",
          "type": "uint192"
        }
      ],
      "name": "getNonce",
      "outputs": [
        {
          "internalType": "uint256",
          "name": "",
          "type": "uint256"
        }
      ],
      "stateMutability": "view",
      "type": "function"
    },
    {
      "inputs": [],
      "name": "getNonce",
      "outputs": [
        {
          "internalType": "uint256",
          "name": "",
          "type": "uint256"
        }
      ],
      "stateMutability": "view",
      "type": "function"
    },
    {
      "inputs": [
        {
          "internalType": "address",
          "name": "signer",
          "type": "address"
        }
      ],
      "name": "initializeECDSA",
      "outputs": [],
      "stateMutability": "nonpayable",
      "type": "function"
    },
    {
      "inputs": [
        {
          "internalType": "bytes32",
          "name": "hash",
          "type": "bytes32"
        },
        {
          "internalType": "bytes",
          "name": "signature",
          "type": "bytes"
        }
      ],
      "name": "isValidSignature",
      "outputs": [
        {
          "internalType": "bytes4",
          "name": "result",
          "type": "bytes4"
        }
      ],
      "stateMutability": "view",
      "type": "function"
    },
    {
      "inputs": [
        {
          "internalType": "address",
          "name": "",
          "type": "address"
        },
        {
          "internalType": "address",
          "name": "",
          "type": "address"
        },
        {
          "internalType": "uint256[]",
          "name": "",
          "type": "uint256[]"
        },
        {
          "internalType": "uint256[]",
          "name": "",
          "type": "uint256[]"
        },
        {
          "internalType": "bytes",
          "name": "",
          "type": "bytes"
        }
      ],
      "name": "onERC1155BatchReceived",
      "outputs": [
        {
          "internalType": "bytes4",
          "name": "",
          "type": "bytes4"
        }
      ],
      "stateMutability": "nonpayable",
      "type": "function"
    },
    {
      "inputs": [
        {
          "internalType": "address",
          "name": "",
          "type": "address"
        },
        {
          "internalType": "address",
          "name": "",
          "type": "address"
        },
        {
          "internalType": "uint256",
          "name": "",
          "type": "uint256"
        },
        {
          "internalType": "uint256",
          "name": "",
          "type": "uint256"
        },
        {
          "internalType": "bytes",
          "name": "",
          "type": "bytes"
        }
      ],
      "name": "onERC1155Received",
      "outputs": [
        {
          "internalType": "bytes4",
          "name": "",
          "type": "bytes4"
        }
      ],
      "stateMutability": "nonpayable",
      "type": "function"
    },
    {
      "inputs": [
        {
          "internalType": "address",
          "name": "",
          "type": "address"
        },
        {
          "internalType": "address",
          "name": "",
          "type": "address"
        },
        {
          "internalType": "uint256",
          "name": "",
          "type": "uint256"
        },
        {
          "internalType": "bytes",
          "name": "",
          "type": "bytes"
        }
      ],
      "name": "onERC721Received",
      "outputs": [
        {
          "internalType": "bytes4",
          "name": "",
          "type": "bytes4"
        }
      ],
      "stateMutability": "nonpayable",
      "type": "function"
    },
    {
      "inputs": [],
      "name": "signer",
      "outputs": [
        {
          "internalType": "address",
          "name": "",
          "type": "address"
        }
      ],
      "stateMutability": "view",
      "type": "function"
    },
    {
      "inputs": [
        {
          "internalType": "bytes32",
          "name": "mode",
          "type": "bytes32"
        }
      ],
      "name": "supportsExecutionMode",
      "outputs": [
        {
          "internalType": "bool",
          "name": "result",
          "type": "bool"
        }
      ],
      "stateMutability": "view",
      "type": "function"
    },
    {
      "inputs": [
        {
          "internalType": "bytes4",
          "name": "interfaceId",
          "type": "bytes4"
        }
      ],
      "name": "supportsInterface",
      "outputs": [
        {
          "internalType": "bool",
          "name": "",
          "type": "bool"
        }
      ],
      "stateMutability": "view",
      "type": "function"
    },
    {
      "inputs": [
        {
          "components": [
            {
              "internalType": "address",
              "name": "sender",
              "type": "address"
            },
            {
              "internalType": "uint256",
              "name": "nonce",
              "type": "uint256"
            },
            {
              "internalType": "bytes",
              "name": "initCode",
              "type": "bytes"
            },
            {
              "internalType": "bytes",
              "name": "callData",
              "type": "bytes"
            },
            {
              "internalType": "bytes32",
              "name": "accountGasLimits",
              "type": "bytes32"
            },
            {
              "internalType": "uint256",
              "name": "preVerificationGas",
              "type": "uint256"
            },
            {
              "internalType": "bytes32",
              "name": "gasFees",
              "type": "bytes32"
            },
            {
              "internalType": "bytes",
              "name": "paymasterAndData",
              "type": "bytes"
            },
            {
              "internalType": "bytes",
              "name": "signature",
              "type": "bytes"
            }
          ],
          "internalType": "struct PackedUserOperation",
          "name": "userOp",
          "type": "tuple"
        },
        {
          "internalType": "bytes32",
          "name": "userOpHash",
          "type": "bytes32"
        },
        {
          "internalType": "uint256",
          "name": "missingAccountFunds",
          "type": "uint256"
        }
      ],
      "name": "validateUserOp",
      "outputs": [
        {
          "internalType": "uint256",
          "name": "",
          "type": "uint256"
        }
      ],
      "stateMutability": "nonpayable",
      "type": "function"
    },
    {
      "stateMutability": "payable",
      "type": "receive"
    }
  ],
  "bytecode": "0x61016060405234801561001157600080fd5b506040518060400160405280600c81526020017f4163636f756e74454344534100000000000000000000000000000000000000008152506040518060400160405280600181526020017f310000000000000000000000000000000000000000000000000000000000000081525061009260008361012d60201b90919060201c565b61012081815250506100ae60018261012d60201b90919060201c565b6101408181525050818051906020012060e08181525050808051906020012061010081815250504660a081815250506100eb61017d60201b60201c565b608081815250503073ffffffffffffffffffffffffffffffffffffffff1660c08173ffffffffffffffffffffffffffffffffffffffff16815250505050610766565b600060208351101561014f57610148836101d860201b60201c565b9050610177565b8261015f8361024060201b60201c565b600001908161016e919061049a565b5060ff60001b90505b92915050565b60007f8b73c3c69bb8fe3d512ecc4cf759cc79239f7b179b0ffacaa9a75d522b39400f60e0516101005146306040516020016101bd9594939291906105d5565b60405160208183030381529060405280519060200120905090565b600080829050601f8151111561022557826040517f305a27a900000000000000000000000000000000000000000000000000000000815260040161021c91906106ad565b60405180910390fd5b805181610231906106ff565b60001c1760001b915050919050565b6000819050919050565b600081519050919050565b7f4e487b7100000000000000000000000000000000000000000000000000000000600052604160045260246000fd5b7f4e487b7100000000000000000000000000000000000000000000000000000000600052602260045260246000fd5b600060028204905060018216806102cb57607f821691505b6020821081036102de576102dd610284565b5b50919050565b60008190508160005260206000209050919050565b60006020601f8301049050919050565b600082821b905092915050565b6000600883026103467fffffffffffffffffffffffffffffffffffffffffffffffffffffffffffffffff82610309565b6103508683610309565b95508019841693508086168417925050509392505050565b6000819050919050565b6000819050919050565b600061039761039261038d84610368565b610372565b610368565b9050919050565b6000819050919050565b6103b18361037c565b6103c56103bd8261039e565b848454610316565b825550505050565b600090565b6103da6103cd565b6103e58184846103a8565b505050565b5b81811015610409576103fe6000826103d2565b6001810190506103eb565b5050565b601f82111561044e5761041f816102e4565b610428846102f9565b81016020851015610437578190505b61044b610443856102f9565b8301826103ea565b50505b505050565b600082821c905092915050565b600061047160001984600802610453565b1980831691505092915050565b600061048a8383610460565b9150826002028217905092915050565b6104a38261024a565b67ffffffffffffffff8111156104bc576104bb610255565b5b6104c682546102b3565b6104d182828561040d565b600060209050601f83116001811461050457600084156104f2578287015190505b6104fc858261047e565b865550610564565b601f198416610512866102e4565b60005b8281101561053a57848901518255600182019150602085019450602081019050610515565b868310156105575784890151610553601f891682610460565b8355505b6001600288020188555050505b505050505050565b6000819050919050565b61057f8161056c565b82525050565b61058e81610368565b82525050565b600073ffffffffffffffffffffffffffffffffffffffff82169050919050565b60006105bf82610594565b9050919050565b6105cf816105b4565b82525050565b600060a0820190506105ea6000830188610576565b6105f76020830187610576565b6106046040830186610576565b6106116060830185610585565b61061e60808301846105c6565b9695505050505050565b600082825260208201905092915050565b60005b8381101561065757808201518184015260208101905061063c565b60008484015250505050565b6000601f19601f8301169050919050565b600061067f8261024a565b6106898185610628565b9350610699818560208601610639565b6106a281610663565b840191505092915050565b600060208201905081810360008301526106c78184610674565b905092915050565b600081519050919050565b6000819050602082019050919050565b60006106f6825161056c565b80915050919050565b600061070a826106cf565b82610714846106da565b905061071f816106ea565b9250602082101561075f5761075a7fffffffffffffffffffffffffffffffffffffffffffffffffffffffffffffffff83602003600802610309565b831692505b5050919050565b60805160a05160c05160e0516101005161012051610140516133e76107c06000396000610c4e01526000610c1301526000611b3f01526000611b1e01526000611281015260006112d70152600061130001526133e76000f3fe6080604052600436106100e15760003560e01c8063a2ab583a1161007f578063d03c791411610059578063d03c79141461030b578063d087d28814610348578063e9ae5c5314610373578063f23a6e611461038f576100e8565b8063a2ab583a1461027a578063b0d691fe146102a3578063bc197c81146102ce576100e8565b806319822f7c116100bb57806319822f7c146101a4578063238ac933146101e15780633e1b08121461020c57806384b0196e14610249576100e8565b806301ffc9a7146100ed578063150b7a021461012a5780631626ba7e14610167576100e8565b366100e857005b600080fd5b3480156100f957600080fd5b50610114600480360381019061010f9190612103565b6103cc565b604051610121919061214b565b60405180910390f35b34801561013657600080fd5b50610151600480360381019061014c9190612340565b610446565b60405161015e91906123d2565b60405180910390f35b34801561017357600080fd5b5061018e60048036038101906101899190612483565b61045a565b60405161019b91906123d2565b60405180910390f35b3480156101b057600080fd5b506101cb60048036038101906101c69190612508565b6104e3565b6040516101d89190612586565b60405180910390f35b3480156101ed57600080fd5b506101f661050f565b60405161020391906125b0565b60405180910390f35b34801561021857600080fd5b50610233600480360381019061022e919061261b565b610539565b6040516102409190612586565b60405180910390f35b34801561025557600080fd5b5061025e6105c5565b60405161027197969594939291906127cf565b60405180910390f35b34801561028657600080fd5b506102a1600480360381019061029c9190612853565b61066f565b005b3480156102af57600080fd5b506102b86107fe565b6040516102c591906128df565b60405180910390f35b3480156102da57600080fd5b506102f560048036038101906102f091906129bd565b61081a565b60405161030291906123d2565b60405180910390f35b34801561031757600080fd5b50610332600480360381019061032d9190612a8c565b61082f565b60405161033f919061214b565b60405180910390f35b34801561035457600080fd5b5061035d610889565b60405161036a9190612586565b60405180910390f35b61038d60048036038101906103889190612483565b61089a565b005b34801561039b57600080fd5b506103b660048036038101906103b19190612ab9565b610945565b6040516103c391906123d2565b60405180910390f35b60007f4e2312e0000000000000000000000000000000000000000000000000000000007bffffffffffffffffffffffffffffffffffffffffffffffffffffffff1916827bffffffffffffffffffffffffffffffffffffffffffffffffffffffff1916148061043f575061043e8261095a565b5b9050919050565b600063150b7a0260e01b9050949350505050565b60006104678484846109c4565b806104795750610478848484610a9f565b5b6104d1577f773977397739773977397739773977397739773977397739773977397739773960001b841480156104b25750600083839050145b6104c35763ffffffff60e01b6104cc565b637739000160e01b5b6104da565b631626ba7e60e01b5b90509392505050565b60006104ed610ad6565b60006104f98585610b55565b905061050483610b90565b809150509392505050565b6000600260009054906101000a900473ffffffffffffffffffffffffffffffffffffffff16905090565b60006105436107fe565b73ffffffffffffffffffffffffffffffffffffffff166335567e1a30846040518363ffffffff1660e01b815260040161057d929190612b5f565b602060405180830381865afa15801561059a573d6000803e3d6000fd5b505050506040513d601f19601f820116820180604052508101906105be9190612b9d565b9050919050565b6000606080600080600060606105d9610c0a565b6105e1610c45565b46306000801b600067ffffffffffffffff81111561060257610601612215565b5b6040519080825280602002602001820160405280156106305781602001602082028036833780820191505090505b507f0f00000000000000000000000000000000000000000000000000000000000000959493929190965096509650965096509650965090919293949596565b6000610679610c80565b905060008160000160089054906101000a900460ff1615905060008260000160009054906101000a900467ffffffffffffffff1690506000808267ffffffffffffffff161480156106c75750825b9050600060018367ffffffffffffffff161480156106fc575060003073ffffffffffffffffffffffffffffffffffffffff163b145b90508115801561070a575080155b15610741576040517ff92ee8a900000000000000000000000000000000000000000000000000000000815260040160405180910390fd5b60018560000160006101000a81548167ffffffffffffffff021916908367ffffffffffffffff16021790555083156107915760018560000160086101000a81548160ff0219169083151502179055505b61079a86610c94565b83156107f65760008560000160086101000a81548160ff0219169083151502179055507fc7f505b2f371ae2175ee4913f4499e1f2633a7b5936321eed1cdaeb6115181d260016040516107ed9190612c19565b60405180910390a15b505050505050565b6000734337084d9e255ff0702461cf8895ce9e3b5ff108905090565b600063bc197c8160e01b905095945050505050565b60008060008061083e85610cd8565b5092509250925061085383600160f81b610d19565b8015610869575061086882600060f81b610d6a565b5b801561087f575061087e81600060e01b610dbb565b5b9350505050919050565b60006108956000610539565b905090565b6108a633848484610e06565b6108e757336040517f7cf8632b0000000000000000000000000000000000000000000000000000000081526004016108de91906125b0565b60405180910390fd5b6108f08361082f565b610926576040517f7f18127500000000000000000000000000000000000000000000000000000000815260040160405180910390fd5b61093f600060f81b8383610e5b9290919263ffffffff16565b50505050565b600063f23a6e6160e01b905095945050505050565b60007f01ffc9a7000000000000000000000000000000000000000000000000000000007bffffffffffffffffffffffffffffffffffffffffffffffffffffffff1916827bffffffffffffffffffffffffffffffffffffffffffffffffffffffff1916149050919050565b60003660008060003660006109d98989610fa0565b95509550955095509550955060008060008060006109f56105c5565b509550955095509550955050610a14888a6110eb90919063ffffffff16565b8f148015610a26575060008787905014155b8015610a8b5750610a8a610a83610a7489898c8a805190602001208a805190602001208a8a8a604051602001610a60959493929190612c34565b60405160208183030381529060405261112c565b8b6110eb90919063ffffffff16565b8c8c611162565b5b9b5050505050505050505050509392505050565b6000610acd610ac6610ab08661122b565b610ab861127d565b6110eb90919063ffffffff16565b8484611162565b90509392505050565b6000339050610ae36107fe565b73ffffffffffffffffffffffffffffffffffffffff168173ffffffffffffffffffffffffffffffffffffffff1614610b5257806040517f7cf8632b000000000000000000000000000000000000000000000000000000008152600401610b4991906125b0565b60405180910390fd5b50565b6000610b7a610b648484611334565b84806101000190610b759190612c96565b611162565b610b85576001610b88565b60005b905092915050565b6000811115610c075760003373ffffffffffffffffffffffffffffffffffffffff1682604051610bbf90612d2a565b60006040518083038185875af1925050503d8060008114610bfc576040519150601f19603f3d011682016040523d82523d6000602084013e610c01565b606091505b50509050505b50565b6060610c4060007f000000000000000000000000000000000000000000000000000000000000000061133f90919063ffffffff16565b905090565b6060610c7b60017f000000000000000000000000000000000000000000000000000000000000000061133f90919063ffffffff16565b905090565b600080610c8b6113ef565b90508091505090565b80600260006101000a81548173ffffffffffffffffffffffffffffffffffffffff021916908373ffffffffffffffffffffffffffffffffffffffff16021790555050565b600080600080610ce985600061141a565b610cf486600161141a565b610cff87600661146f565b610d0a88600a6114c4565b93509350935093509193509193565b6000817effffffffffffffffffffffffffffffffffffffffffffffffffffffffffffff1916837effffffffffffffffffffffffffffffffffffffffffffffffffffffffffffff191614905092915050565b6000817effffffffffffffffffffffffffffffffffffffffffffffffffffffffffffff1916837effffffffffffffffffffffffffffffffffffffffffffffffffffffffffffff191614905092915050565b6000817bffffffffffffffffffffffffffffffffffffffffffffffffffffffff1916837bffffffffffffffffffffffffffffffffffffffffffffffffffffffff191614905092915050565b6000610e106107fe565b73ffffffffffffffffffffffffffffffffffffffff168573ffffffffffffffffffffffffffffffffffffffff161480610e515750610e5085858585611519565b5b9050949350505050565b6060366000610e6a8686611554565b915091508181905067ffffffffffffffff811115610e8b57610e8a612215565b5b604051908082528060200260200182016040528015610ebe57816020015b6060815260200190600190039081610ea95790505b50925060005b82829050811015610f9657610f6d8186858585818110610ee757610ee6612d3f565b5b9050602002810190610ef99190612d6e565b6000016020810190610f0b9190612853565b868686818110610f1e57610f1d612d3f565b5b9050602002810190610f309190612d6e565b60200135878787818110610f4757610f46612d3f565b5b9050602002810190610f599190612d6e565b8060400190610f689190612c96565b61168e565b848281518110610f8057610f7f612d3f565b5b6020026020010181905250806001019050610ec4565b5050509392505050565b366000806000366000808888905090506042811015610fea57610fc1611757565b600080610fcc611765565b8360001b93508260001b9250965096509650965096509650506110e1565b600060028203905060008a8a8390809261100693929190612da0565b906110119190612e1f565b60f01c61ffff169050806042018310156110585761102d611757565b600080611038611765565b8360001b93508260001b92509850985098509850985098505050506110e1565b60008183039050600060208203905060006020820390508d8d600090839261108293929190612da0565b9b509b508d8d8290849261109893929190612da0565b906110a39190612e7e565b99508d8d839085926110b793929190612da0565b906110c29190612e7e565b98508d8d849087926110d693929190612da0565b975097505050505050505b9295509295509295565b60006040517f190100000000000000000000000000000000000000000000000000000000000081528360028201528260228201526042812091505092915050565b600036600036600061113e8989611773565b9350935093509350611154848484848b8b611a45565b945050505050949350505050565b60008060006111b58686868080601f016020809104026020016040519081016040528093929190818152602001838380828437600081840152601f19601f82011690508083019250505050505050611a9d565b50915091508173ffffffffffffffffffffffffffffffffffffffff166111d961050f565b73ffffffffffffffffffffffffffffffffffffffff1614801561122057506000600381111561120b5761120a612edd565b5b81600381111561121e5761121d612edd565b5b145b925050509392505050565b60007f983e65e5148e570cd828ead231ee759a8d7958721a768f93bc4483ba005c32de82604051602001611260929190612f0c565b604051602081830303815290604052805190602001209050919050565b60007f000000000000000000000000000000000000000000000000000000000000000073ffffffffffffffffffffffffffffffffffffffff163073ffffffffffffffffffffffffffffffffffffffff161480156112f957507f000000000000000000000000000000000000000000000000000000000000000046145b15611326577f00000000000000000000000000000000000000000000000000000000000000009050611331565b61132e611af9565b90505b90565b600081905092915050565b606060ff60001b831461135c5761135583611b8f565b90506113e9565b81805461136890612f64565b80601f016020809104026020016040519081016040528092919081815260200182805461139490612f64565b80156113e15780601f106113b6576101008083540402835291602001916113e1565b820191906000526020600020905b8154815290600101906020018083116113c457829003601f168201915b505050505090505b92915050565b60007ff0c57e16840df040f15088dc2f81fe391c3923bec73e23a9662efc9c229c6a0060001b905090565b6000601f8260ff16111561145a576040517f3ba9763600000000000000000000000000000000000000000000000000000000815260040160405180910390fd5b60001960f81b83836008021b16905092915050565b6000601c8260ff1611156114af576040517f3ba9763600000000000000000000000000000000000000000000000000000000815260040160405180910390fd5b60001960e01b83836008021b16905092915050565b6000600a8260ff161115611504576040517f3ba9763600000000000000000000000000000000000000000000000000000000815260040160405180910390fd5b60001960501b83836008021b16905092915050565b60003073ffffffffffffffffffffffffffffffffffffffff168573ffffffffffffffffffffffffffffffffffffffff16149050949350505050565b366000808484905090506020811015611599576040517feb0bcc5d00000000000000000000000000000000000000000000000000000000815260040160405180910390fd5b600085856000906020926115af93929190612da0565b906115ba9190612e7e565b60001c9050602082038111156115fc576040517feb0bcc5d00000000000000000000000000000000000000000000000000000000815260040160405180910390fd5b600086868390602085019261161393929190612da0565b9061161e9190612e7e565b60001c905067ffffffffffffffff8016811180611642575060208102602083850303105b15611679576040517feb0bcc5d00000000000000000000000000000000000000000000000000000000815260040160405180910390fd5b60208288010194508093505050509250929050565b6060600080600073ffffffffffffffffffffffffffffffffffffffff168773ffffffffffffffffffffffffffffffffffffffff16146116cd57866116cf565b305b73ffffffffffffffffffffffffffffffffffffffff168686866040516116f6929190612fba565b60006040518083038185875af1925050503d8060008114611733576040519150601f19603f3d011682016040523d82523d6000602084013e611738565b606091505b509150915061174989898484611c03565b925050509695505050505050565b366000809150600090509091565b366000809150600090509091565b3660003660003660008787915091506000828290500315611a21577f29000000000000000000000000000000000000000000000000000000000000007effffffffffffffffffffffffffffffffffffffffffffffffffffffffffffff191682826001858590506117e39190613002565b8181106117f3576117f2612d3f565b5b9050013560f81c60f81b7effffffffffffffffffffffffffffffffffffffffffffffffffffffffffffff1916036119185760005b8282905081101561191257600083838381811061184757611846612d3f565b5b9050013560f81c60f81b90507f28000000000000000000000000000000000000000000000000000000000000007effffffffffffffffffffffffffffffffffffffffffffffffffffffffffffff1916817effffffffffffffffffffffffffffffffffffffffffffffffffffffffffffff1916036118f257600082036118cc5750611912565b838360009084926118df93929190612da0565b8b8b975097509750975050505050611a3c565b6118fb81611cc8565b156119065750611912565b50806001019050611827565b50611a20565b60008282905090505b6000811115611a1e576000838360018461193b9190613002565b81811061194b5761194a612d3f565b5b9050013560f81c60f81b90507f29000000000000000000000000000000000000000000000000000000000000007effffffffffffffffffffffffffffffffffffffffffffffffffffffffffffff1916817effffffffffffffffffffffffffffffffffffffffffffffffffffffffffffff1916036119f8578383839080926119d493929190612da0565b858560009086926119e793929190612da0565b975097509750975050505050611a3c565b611a0181611cc8565b15611a0c5750611a1e565b5080611a1790613036565b9050611921565b505b5b611a29611765565b611a31611765565b955095509550955050505b92959194509250565b6000808787905014611a8c57611a5d87878787611eb1565b8383604051602001611a71939291906130bc565b60405160208183030381529060405280519060200120611a91565b6000801b5b90509695505050505050565b60008060006041845103611ae25760008060006020870151925060408701519150606087015160001a9050611ad488828585611eea565b955095509550505050611af2565b60006002855160001b9250925092505b9250925092565b60007f8b73c3c69bb8fe3d512ecc4cf759cc79239f7b179b0ffacaa9a75d522b39400f7f00000000000000000000000000000000000000000000000000000000000000007f00000000000000000000000000000000000000000000000000000000000000004630604051602001611b749594939291906130f5565b60405160208183030381529060405280519060200120905090565b60606000611b9c83611fde565b90506000602067ffffffffffffffff811115611bbb57611bba612215565b5b6040519080825280601f01601f191660200182016040528015611bed5781602001600182028036833780820191505090505b5090508181528360208201528092505050919050565b6060611c1384600060f81b610d6a565b15611c2857611c22838361202e565b50611cbd565b611c3684600160f81b610d6a565b15611c7f5782611c7a577f2eea2f51f83910481f4b5ba28b7003a6e045d4b59f67dfff8d4c9011940500898583604051611c71929190613192565b60405180910390a15b611cbc565b836040517f23a24085000000000000000000000000000000000000000000000000000000008152600401611cb391906131e3565b60405180910390fd5b5b819050949350505050565b60008060f81b827effffffffffffffffffffffffffffffffffffffffffffffffffffffffffffff19161480611d6057507f20000000000000000000000000000000000000000000000000000000000000007effffffffffffffffffffffffffffffffffffffffffffffffffffffffffffff1916827effffffffffffffffffffffffffffffffffffffffffffffffffffffffffffff1916145b80611dce57507f2c000000000000000000000000000000000000000000000000000000000000007effffffffffffffffffffffffffffffffffffffffffffffffffffffffffffff1916827effffffffffffffffffffffffffffffffffffffffffffffffffffffffffffff1916145b80611e3c57507f28000000000000000000000000000000000000000000000000000000000000007effffffffffffffffffffffffffffffffffffffffffffffffffffffffffffff1916827effffffffffffffffffffffffffffffffffffffffffffffffffffffffffffff1916145b80611eaa57507f29000000000000000000000000000000000000000000000000000000000000007effffffffffffffffffffffffffffffffffffffffffffffffffffffffffffff1916827effffffffffffffffffffffffffffffffffffffffffffffffffffffffffffff1916145b9050919050565b600084848484604051602001611eca9493929190613312565b604051602081830303815290604052805190602001209050949350505050565b60008060007f7fffffffffffffffffffffffffffffff5d576e7357a4501ddfe92f46681b20a08460001c1115611f2a576000600385925092509250611fd4565b600060018888888860405160008152602001604052604051611f4f949392919061336c565b6020604051602081039080840390855afa158015611f71573d6000803e3d6000fd5b505050602060405103519050600073ffffffffffffffffffffffffffffffffffffffff168173ffffffffffffffffffffffffffffffffffffffff1603611fc557600060016000801b93509350935050611fd4565b8060008060001b935093509350505b9450945094915050565b60008060ff8360001c169050601f811115612025576040517fb3512b0c00000000000000000000000000000000000000000000000000000000815260040160405180910390fd5b80915050919050565b6060826120435761203e82612052565b61204b565b81905061204c565b5b92915050565b6000815111156120655780518082602001fd5b6040517fd6bda27500000000000000000000000000000000000000000000000000000000815260040160405180910390fd5b6000604051905090565b600080fd5b600080fd5b60007fffffffff0000000000000000000000000000000000000000000000000000000082169050919050565b6120e0816120ab565b81146120eb57600080fd5b50565b6000813590506120fd816120d7565b92915050565b600060208284031215612119576121186120a1565b5b6000612127848285016120ee565b91505092915050565b60008115159050919050565b61214581612130565b82525050565b6000602082019050612160600083018461213c565b92915050565b600073ffffffffffffffffffffffffffffffffffffffff82169050919050565b600061219182612166565b9050919050565b6121a181612186565b81146121ac57600080fd5b50565b6000813590506121be81612198565b92915050565b6000819050919050565b6121d7816121c4565b81146121e257600080fd5b50565b6000813590506121f4816121ce565b92915050565b600080fd5b600080fd5b6000601f19601f8301169050919050565b7f4e487b7100000000000000000000000000000000000000000000000000000000600052604160045260246000fd5b61224d82612204565b810181811067ffffffffffffffff8211171561226c5761226b612215565b5b80604052505050565b600061227f612097565b905061228b8282612244565b919050565b600067ffffffffffffffff8211156122ab576122aa612215565b5b6122b482612204565b9050602081019050919050565b82818337600083830152505050565b60006122e36122de84612290565b612275565b9050828152602081018484840111156122ff576122fe6121ff565b5b61230a8482856122c1565b509392505050565b600082601f830112612327576123266121fa565b5b81356123378482602086016122d0565b91505092915050565b6000806000806080858703121561235a576123596120a1565b5b6000612368878288016121af565b9450506020612379878288016121af565b935050604061238a878288016121e5565b925050606085013567ffffffffffffffff8111156123ab576123aa6120a6565b5b6123b787828801612312565b91505092959194509250565b6123cc816120ab565b82525050565b60006020820190506123e760008301846123c3565b92915050565b6000819050919050565b612400816123ed565b811461240b57600080fd5b50565b60008135905061241d816123f7565b92915050565b600080fd5b600080fd5b60008083601f840112612443576124426121fa565b5b8235905067ffffffffffffffff8111156124605761245f612423565b5b60208301915083600182028301111561247c5761247b612428565b5b9250929050565b60008060006040848603121561249c5761249b6120a1565b5b60006124aa8682870161240e565b935050602084013567ffffffffffffffff8111156124cb576124ca6120a6565b5b6124d78682870161242d565b92509250509250925092565b600080fd5b600061012082840312156124ff576124fe6124e3565b5b81905092915050565b600080600060608486031215612521576125206120a1565b5b600084013567ffffffffffffffff81111561253f5761253e6120a6565b5b61254b868287016124e8565b935050602061255c8682870161240e565b925050604061256d868287016121e5565b9150509250925092565b612580816121c4565b82525050565b600060208201905061259b6000830184612577565b92915050565b6125aa81612186565b82525050565b60006020820190506125c560008301846125a1565b92915050565b600077ffffffffffffffffffffffffffffffffffffffffffffffff82169050919050565b6125f8816125cb565b811461260357600080fd5b50565b600081359050612615816125ef565b92915050565b600060208284031215612631576126306120a1565b5b600061263f84828501612606565b91505092915050565b60007fff0000000000000000000000000000000000000000000000000000000000000082169050919050565b61267d81612648565b82525050565b600081519050919050565b600082825260208201905092915050565b60005b838110156126bd5780820151818401526020810190506126a2565b60008484015250505050565b60006126d482612683565b6126de818561268e565b93506126ee81856020860161269f565b6126f781612204565b840191505092915050565b61270b816123ed565b82525050565b600081519050919050565b600082825260208201905092915050565b6000819050602082019050919050565b612746816121c4565b82525050565b6000612758838361273d565b60208301905092915050565b6000602082019050919050565b600061277c82612711565b612786818561271c565b93506127918361272d565b8060005b838110156127c25781516127a9888261274c565b97506127b483612764565b925050600181019050612795565b5085935050505092915050565b600060e0820190506127e4600083018a612674565b81810360208301526127f681896126c9565b9050818103604083015261280a81886126c9565b90506128196060830187612577565b61282660808301866125a1565b61283360a0830185612702565b81810360c08301526128458184612771565b905098975050505050505050565b600060208284031215612869576128686120a1565b5b6000612877848285016121af565b91505092915050565b6000819050919050565b60006128a56128a061289b84612166565b612880565b612166565b9050919050565b60006128b78261288a565b9050919050565b60006128c9826128ac565b9050919050565b6128d9816128be565b82525050565b60006020820190506128f460008301846128d0565b92915050565b600067ffffffffffffffff82111561291557612914612215565b5b602082029050602081019050919050565b6000612939612934846128fa565b612275565b9050808382526020820190506020840283018581111561295c5761295b612428565b5b835b81811015612985578061297188826121e5565b84526020840193505060208101905061295e565b5050509392505050565b600082601f8301126129a4576129a36121fa565b5b81356129b4848260208601612926565b91505092915050565b600080600080600060a086880312156129d9576129d86120a1565b5b60006129e7888289016121af565b95505060206129f8888289016121af565b945050604086013567ffffffffffffffff811115612a1957612a186120a6565b5b612a258882890161298f565b935050606086013567ffffffffffffffff811115612a4657612a456120a6565b5b612a528882890161298f565b925050608086013567ffffffffffffffff811115612a7357612a726120a6565b5b612a7f88828901612312565b9150509295509295909350565b600060208284031215612aa257612aa16120a1565b5b6000612ab08482850161240e565b91505092915050565b600080600080600060a08688031215612ad557612ad46120a1565b5b6000612ae3888289016121af565b9550506020612af4888289016121af565b9450506040612b05888289016121e5565b9350506060612b16888289016121e5565b925050608086013567ffffffffffffffff811115612b3757612b366120a6565b5b612b4388828901612312565b9150509295509295909350565b612b59816125cb565b82525050565b6000604082019050612b7460008301856125a1565b612b816020830184612b50565b9392505050565b600081519050612b97816121ce565b92915050565b600060208284031215612bb357612bb26120a1565b5b6000612bc184828501612b88565b91505092915050565b6000819050919050565b600067ffffffffffffffff82169050919050565b6000612c03612bfe612bf984612bca565b612880565b612bd4565b9050919050565b612c1381612be8565b82525050565b6000602082019050612c2e6000830184612c0a565b92915050565b600060a082019050612c496000830188612702565b612c566020830187612702565b612c636040830186612577565b612c7060608301856125a1565b612c7d6080830184612702565b9695505050505050565b600080fd5b600080fd5b600080fd5b60008083356001602003843603038112612cb357612cb2612c87565b5b80840192508235915067ffffffffffffffff821115612cd557612cd4612c8c565b5b602083019250600182023603831315612cf157612cf0612c91565b5b509250929050565b600081905092915050565b50565b6000612d14600083612cf9565b9150612d1f82612d04565b600082019050919050565b6000612d3582612d07565b9150819050919050565b7f4e487b7100000000000000000000000000000000000000000000000000000000600052603260045260246000fd5b600082356001606003833603038112612d8a57612d89612c87565b5b80830191505092915050565b600080fd5b600080fd5b60008085851115612db457612db3612d96565b5b83861115612dc557612dc4612d9b565b5b6001850283019150848603905094509492505050565b600082905092915050565b60007fffff00000000000000000000000000000000000000000000000000000000000082169050919050565b600082821b905092915050565b6000612e2b8383612ddb565b82612e368135612de6565b92506002821015612e7657612e717fffff00000000000000000000000000000000000000000000000000000000000083600203600802612e12565b831692505b505092915050565b6000612e8a8383612ddb565b82612e9581356123ed565b92506020821015612ed557612ed07fffffffffffffffffffffffffffffffffffffffffffffffffffffffffffffffff83602003600802612e12565b831692505b505092915050565b7f4e487b7100000000000000000000000000000000000000000000000000000000600052602160045260246000fd5b6000604082019050612f216000830185612702565b612f2e6020830184612702565b9392505050565b7f4e487b7100000000000000000000000000000000000000000000000000000000600052602260045260246000fd5b60006002820490506001821680612f7c57607f821691505b602082108103612f8f57612f8e612f35565b5b50919050565b6000612fa18385612cf9565b9350612fae8385846122c1565b82840190509392505050565b6000612fc7828486612f95565b91508190509392505050565b7f4e487b7100000000000000000000000000000000000000000000000000000000600052601160045260246000fd5b600061300d826121c4565b9150613018836121c4565b92508282039050818111156130305761302f612fd3565b5b92915050565b6000613041826121c4565b91506000820361305457613053612fd3565b5b600182039050919050565b6000819050919050565b61307a613075826123ed565b61305f565b82525050565b600081519050919050565b600061309682613080565b6130a08185612cf9565b93506130b081856020860161269f565b80840191505092915050565b60006130c88286613069565b6020820191506130d88285613069565b6020820191506130e8828461308b565b9150819050949350505050565b600060a08201905061310a6000830188612702565b6131176020830187612702565b6131246040830186612702565b6131316060830185612577565b61313e60808301846125a1565b9695505050505050565b600082825260208201905092915050565b600061316482613080565b61316e8185613148565b935061317e81856020860161269f565b61318781612204565b840191505092915050565b60006040820190506131a76000830185612577565b81810360208301526131b98184613159565b90509392505050565b60006131cd82612648565b9050919050565b6131dd816131c2565b82525050565b60006020820190506131f860008301846131d4565b92915050565b600081905092915050565b7f5479706564446174615369676e28000000000000000000000000000000000000600082015250565b600061323f600e836131fe565b915061324a82613209565b600e82019050919050565b600061326183856131fe565b935061326e8385846122c1565b82840190509392505050565b7f20636f6e74656e74732c737472696e67206e616d652c737472696e672076657260008201527f73696f6e2c75696e7432353620636861696e49642c616464726573732076657260208201527f696679696e67436f6e74726163742c627974657333322073616c742900000000604082015250565b60006132fc605c836131fe565b91506133078261327a565b605c82019050919050565b600061331d82613232565b915061332a828688613255565b9150613335826132ef565b9150613342828486613255565b915081905095945050505050565b600060ff82169050919050565b61336681613350565b82525050565b60006080820190506133816000830187612702565b61338e602083018661335d565b61339b6040830185612702565b6133a86060830184612702565b9594505050505056fea26469706673582212209908f6a82e9901889eed7fa504b4625796ddd160248961e70cfc62efa929543364736f6c634300081c0033",
  "linkReferences": {},
  "deployedLinkReferences": {}
}