{
  "_format": "hh-sol-artifact-1",
  "contractName": "MyTokenVault",
  "sourceName": "contracts/MyTokenVault.sol",
  "abi": [
    {
      "inputs": [
        {
          "internalType": "contract IERC20Metadata",
          "name": "asset_",
          "type": "address"
        }
      ],
      "stateMutability": "nonpayable",
      "type": "constructor"
    },
    {
      "inputs": [
        {
          "internalType": "address",
          "name": "spender",
          "type": "address"
        },
        {
          "internalType": "uint256",
          "name": "allowance",
          "type": "uint256"
        },
        {
          "internalType": "uint256",
          "name": "needed",
          "type": "uint256"
        }
      ],
      "name": "ERC20InsufficientAllowance",
      "type": "error"
    },
    {
      "inputs": [
        {
          "internalType": "address",
          "name": "sender",
          "type": "address"
        },
        {
          "internalType": "uint256",
          "name": "balance",
          "type": "uint256"
        },
        {
          "internalType": "uint256",
          "name": "needed",
          "type": "uint256"
        }
      ],
      "name": "ERC20InsufficientBalance",
      "type": "error"
    },
    {
      "inputs": [
        {
          "internalType": "address",
          "name": "approver",
          "type": "address"
        }
      ],
      "name": "ERC20InvalidApprover",
      "type": "error"
    },
    {
      "inputs": [
        {
          "internalType": "address",
          "name": "receiver",
          "type": "address"
        }
      ],
      "name": "ERC20InvalidReceiver",
      "type": "error"
    },
    {
      "inputs": [
        {
          "internalType": "address",
          "name": "sender",
          "type": "address"
        }
      ],
      "name": "ERC20InvalidSender",
      "type": "error"
    },
    {
      "inputs": [
        {
          "internalType": "address",
          "name": "spender",
          "type": "address"
        }
      ],
      "name": "ERC20InvalidSpender",
      "type": "error"
    },
    {
      "inputs": [
        {
          "internalType": "address",
          "name": "receiver",
          "type": "address"
        },
        {
          "internalType": "uint256",
          "name": "assets",
          "type": "uint256"
        },
        {
          "internalType": "uint256",
          "name": "max",
          "type": "uint256"
        }
      ],
      "name": "ERC4626ExceededMaxDeposit",
      "type": "error"
    },
    {
      "inputs": [
        {
          "internalType": "address",
          "name": "receiver",
          "type": "address"
        },
        {
          "internalType": "uint256",
          "name": "shares",
          "type": "uint256"
        },
        {
          "internalType": "uint256",
          "name": "max",
          "type": "uint256"
        }
      ],
      "name": "ERC4626ExceededMaxMint",
      "type": "error"
    },
    {
      "inputs": [
        {
          "internalType": "address",
          "name": "owner",
          "type": "address"
        },
        {
          "internalType": "uint256",
          "name": "shares",
          "type": "uint256"
        },
        {
          "internalType": "uint256",
          "name": "max",
          "type": "uint256"
        }
      ],
      "name": "ERC4626ExceededMaxRedeem",
      "type": "error"
    },
    {
      "inputs": [
        {
          "internalType": "address",
          "name": "owner",
          "type": "address"
        },
        {
          "internalType": "uint256",
          "name": "assets",
          "type": "uint256"
        },
        {
          "internalType": "uint256",
          "name": "max",
          "type": "uint256"
        }
      ],
      "name": "ERC4626ExceededMaxWithdraw",
      "type": "error"
    },
    {
      "inputs": [
        {
          "internalType": "address",
          "name": "token",
          "type": "address"
        }
      ],
      "name": "SafeERC20FailedOperation",
      "type": "error"
    },
    {
      "anonymous": false,
      "inputs": [
        {
          "indexed": true,
          "internalType": "address",
          "name": "owner",
          "type": "address"
        },
        {
          "indexed": true,
          "internalType": "address",
          "name": "spender",
          "type": "address"
        },
        {
          "indexed": false,
          "internalType": "uint256",
          "name": "value",
          "type": "uint256"
        }
      ],
      "name": "Approval",
      "type": "event"
    },
    {
      "anonymous": false,
      "inputs": [
        {
          "indexed": true,
          "internalType": "address",
          "name": "sender",
          "type": "address"
        },
        {
          "indexed": true,
          "internalType": "address",
          "name": "owner",
          "type": "address"
        },
        {
          "indexed": false,
          "internalType": "uint256",
          "name": "assets",
          "type": "uint256"
        },
        {
          "indexed": false,
          "internalType": "uint256",
          "name": "shares",
          "type": "uint256"
        }
      ],
      "name": "Deposit",
      "type": "event"
    },
    {
      "anonymous": false,
      "inputs": [
        {
          "indexed": true,
          "internalType": "address",
          "name": "from",
          "type": "address"
        },
        {
          "indexed": true,
          "internalType": "address",
          "name": "to",
          "type": "address"
        },
        {
          "indexed": false,
          "internalType": "uint256",
          "name": "value",
          "type": "uint256"
        }
      ],
      "name": "Transfer",
      "type": "event"
    },
    {
      "anonymous": false,
      "inputs": [
        {
          "indexed": true,
          "internalType": "address",
          "name": "sender",
          "type": "address"
        },
        {
          "indexed": true,
          "internalType": "address",
          "name": "receiver",
          "type": "address"
        },
        {
          "indexed": true,
          "internalType": "address",
          "name": "owner",
          "type": "address"
        },
        {
          "indexed": false,
          "internalType": "uint256",
          "name": "assets",
          "type": "uint256"
        },
        {
          "indexed": false,
          "internalType": "uint256",
          "name": "shares",
          "type": "uint256"
        }
      ],
      "name": "Withdraw",
      "type": "event"
    },
    {
      "inputs": [
        {
          "internalType": "address",
          "name": "owner",
          "type": "address"
        },
        {
          "internalType": "address",
          "name": "spender",
          "type": "address"
        }
      ],
      "name": "allowance",
      "outputs": [
        {
          "internalType": "uint256",
          "name": "",
          "type": "uint256"
        }
      ],
      "stateMutability": "view",
      "type": "function"
    },
    {
      "inputs": [
        {
          "internalType": "address",
          "name": "spender",
          "type": "address"
        },
        {
          "internalType": "uint256",
          "name": "value",
          "type": "uint256"
        }
      ],
      "name": "approve",
      "outputs": [
        {
          "internalType": "bool",
          "name": "",
          "type": "bool"
        }
      ],
      "stateMutability": "nonpayable",
      "type": "function"
    },
    {
      "inputs": [],
      "name": "asset",
      "outputs": [
        {
          "internalType": "address",
          "name": "",
          "type": "address"
        }
      ],
      "stateMutability": "view",
      "type": "function"
    },
    {
      "inputs": [
        {
          "internalType": "address",
          "name": "account",
          "type": "address"
        }
      ],
      "name": "balanceOf",
      "outputs": [
        {
          "internalType": "uint256",
          "name": "",
          "type": "uint256"
        }
      ],
      "stateMutability": "view",
      "type": "function"
    },
    {
      "inputs": [
        {
          "internalType": "uint256",
          "name": "shares",
          "type": "uint256"
        }
      ],
      "name": "convertToAssets",
      "outputs": [
        {
          "internalType": "uint256",
          "name": "",
          "type": "uint256"
        }
      ],
      "stateMutability": "view",
      "type": "function"
    },
    {
      "inputs": [
        {
          "internalType": "uint256",
          "name": "assets",
          "type": "uint256"
        }
      ],
      "name": "convertToShares",
      "outputs": [
        {
          "internalType": "uint256",
          "name": "",
          "type": "uint256"
        }
      ],
      "stateMutability": "view",
      "type": "function"
    },
    {
      "inputs": [],
      "name": "decimals",
      "outputs": [
        {
          "internalType": "uint8",
          "name": "",
          "type": "uint8"
        }
      ],
      "stateMutability": "view",
      "type": "function"
    },
    {
      "inputs": [
        {
          "internalType": "uint256",
          "name": "assets",
          "type": "uint256"
        },
        {
          "internalType": "address",
          "name": "receiver",
          "type": "address"
        }
      ],
      "name": "deposit",
      "outputs": [
        {
          "internalType": "uint256",
          "name": "",
          "type": "uint256"
        }
      ],
      "stateMutability": "nonpayable",
      "type": "function"
    },
    {
      "inputs": [
        {
          "internalType": "address",
          "name": "",
          "type": "address"
        }
      ],
      "name": "maxDeposit",
      "outputs": [
        {
          "internalType": "uint256",
          "name": "",
          "type": "uint256"
        }
      ],
      "stateMutability": "view",
      "type": "function"
    },
    {
      "inputs": [
        {
          "internalType": "address",
          "name": "",
          "type": "address"
        }
      ],
      "name": "maxMint",
      "outputs": [
        {
          "internalType": "uint256",
          "name": "",
          "type": "uint256"
        }
      ],
      "stateMutability": "view",
      "type": "function"
    },
    {
      "inputs": [
        {
          "internalType": "address",
          "name": "owner",
          "type": "address"
        }
      ],
      "name": "maxRedeem",
      "outputs": [
        {
          "internalType": "uint256",
          "name": "",
          "type": "uint256"
        }
      ],
      "stateMutability": "view",
      "type": "function"
    },
    {
      "inputs": [
        {
          "internalType": "address",
          "name": "owner",
          "type": "address"
        }
      ],
      "name": "maxWithdraw",
      "outputs": [
        {
          "internalType": "uint256",
          "name": "",
          "type": "uint256"
        }
      ],
      "stateMutability": "view",
      "type": "function"
    },
    {
      "inputs": [
        {
          "internalType": "uint256",
          "name": "shares",
          "type": "uint256"
        },
        {
          "internalType": "address",
          "name": "receiver",
          "type": "address"
        }
      ],
      "name": "mint",
      "outputs": [
        {
          "internalType": "uint256",
          "name": "",
          "type": "uint256"
        }
      ],
      "stateMutability": "nonpayable",
      "type": "function"
    },
    {
      "inputs": [],
      "name": "name",
      "outputs": [
        {
          "internalType": "string",
          "name": "",
          "type": "string"
        }
      ],
      "stateMutability": "view",
      "type": "function"
    },
    {
      "inputs": [
        {
          "internalType": "uint256",
          "name": "assets",
          "type": "uint256"
        }
      ],
      "name": "previewDeposit",
      "outputs": [
        {
          "internalType": "uint256",
          "name": "",
          "type": "uint256"
        }
      ],
      "stateMutability": "view",
      "type": "function"
    },
    {
      "inputs": [
        {
          "internalType": "uint256",
          "name": "shares",
          "type": "uint256"
        }
      ],
      "name": "previewMint",
      "outputs": [
        {
          "internalType": "uint256",
          "name": "",
          "type": "uint256"
        }
      ],
      "stateMutability": "view",
      "type": "function"
    },
    {
      "inputs": [
        {
          "internalType": "uint256",
          "name": "shares",
          "type": "uint256"
        }
      ],
      "name": "previewRedeem",
      "outputs": [
        {
          "internalType": "uint256",
          "name": "",
          "type": "uint256"
        }
      ],
      "stateMutability": "view",
      "type": "function"
    },
    {
      "inputs": [
        {
          "internalType": "uint256",
          "name": "assets",
          "type": "uint256"
        }
      ],
      "name": "previewWithdraw",
      "outputs": [
        {
          "internalType": "uint256",
          "name": "",
          "type": "uint256"
        }
      ],
      "stateMutability": "view",
      "type": "function"
    },
    {
      "inputs": [
        {
          "internalType": "uint256",
          "name": "shares",
          "type": "uint256"
        },
        {
          "internalType": "address",
          "name": "receiver",
          "type": "address"
        },
        {
          "internalType": "address",
          "name": "owner",
          "type": "address"
        }
      ],
      "name": "redeem",
      "outputs": [
        {
          "internalType": "uint256",
          "name": "",
          "type": "uint256"
        }
      ],
      "stateMutability": "nonpayable",
      "type": "function"
    },
    {
      "inputs": [],
      "name": "symbol",
      "outputs": [
        {
          "internalType": "string",
          "name": "",
          "type": "string"
        }
      ],
      "stateMutability": "view",
      "type": "function"
    },
    {
      "inputs": [],
      "name": "totalAssets",
      "outputs": [
        {
          "internalType": "uint256",
          "name": "",
          "type": "uint256"
        }
      ],
      "stateMutability": "view",
      "type": "function"
    },
    {
      "inputs": [],
      "name": "totalSupply",
      "outputs": [
        {
          "internalType": "uint256",
          "name": "",
          "type": "uint256"
        }
      ],
      "stateMutability": "view",
      "type": "function"
    },
    {
      "inputs": [
        {
          "internalType": "address",
          "name": "to",
          "type": "address"
        },
        {
          "internalType": "uint256",
          "name": "value",
          "type": "uint256"
        }
      ],
      "name": "transfer",
      "outputs": [
        {
          "internalType": "bool",
          "name": "",
          "type": "bool"
        }
      ],
      "stateMutability": "nonpayable",
      "type": "function"
    },
    {
      "inputs": [
        {
          "internalType": "address",
          "name": "from",
          "type": "address"
        },
        {
          "internalType": "address",
          "name": "to",
          "type": "address"
        },
        {
          "internalType": "uint256",
          "name": "value",
          "type": "uint256"
        }
      ],
      "name": "transferFrom",
      "outputs": [
        {
          "internalType": "bool",
          "name": "",
          "type": "bool"
        }
      ],
      "stateMutability": "nonpayable",
      "type": "function"
    },
    {
      "inputs": [
        {
          "internalType": "uint256",
          "name": "assets",
          "type": "uint256"
        },
        {
          "internalType": "address",
          "name": "receiver",
          "type": "address"
        },
        {
          "internalType": "address",
          "name": "owner",
          "type": "address"
        }
      ],
      "name": "withdraw",
      "outputs": [
        {
          "internalType": "uint256",
          "name": "",
          "type": "uint256"
        }
      ],
      "stateMutability": "nonpayable",
      "type": "function"
    }
  ],
  "bytecode": "0x60c060405234801561001057600080fd5b50604051612a47380380612a47833981810160405281019061003291906103f3565b806100eb6040518060400160405280600781526020017f5374616b656420000000000000000000000000000000000000000000000000008152508373ffffffffffffffffffffffffffffffffffffffff166306fdde036040518163ffffffff1660e01b8152600401600060405180830381865afa1580156100b7573d6000803e3d6000fd5b505050506040513d6000823e3d601f19601f820116820180604052508101906100e09190610581565b61023360201b60201c565b6101a36040518060400160405280600181526020017f73000000000000000000000000000000000000000000000000000000000000008152508473ffffffffffffffffffffffffffffffffffffffff166395d89b416040518163ffffffff1660e01b8152600401600060405180830381865afa15801561016f573d6000803e3d6000fd5b505050506040513d6000823e3d601f19601f820116820180604052508101906101989190610581565b61023360201b60201c565b81600390816101b291906107eb565b5080600490816101c291906107eb565b5050506000806101d78361025f60201b60201c565b91509150816101e75760126101e9565b805b60ff1660a08160ff16815250508273ffffffffffffffffffffffffffffffffffffffff1660808173ffffffffffffffffffffffffffffffffffffffff1681525050505050506109d4565b606082826040516020016102489291906108f9565b604051602081830303815290604052905092915050565b6000806000808473ffffffffffffffffffffffffffffffffffffffff1660405160240160405160208183030381529060405263313ce56760e01b6020820180517bffffffffffffffffffffffffffffffffffffffffffffffffffffffff83818316178352505050506040516102d49190610964565b600060405180830381855afa9150503d806000811461030f576040519150601f19603f3d011682016040523d82523d6000602084013e610314565b606091505b509150915081801561032857506020815110155b156103605760008180602001905181019061034391906109a7565b905060ff8016811161035e576001819450945050505061036a565b505b6000809350935050505b915091565b6000604051905090565b600080fd5b600080fd5b600073ffffffffffffffffffffffffffffffffffffffff82169050919050565b60006103ae82610383565b9050919050565b60006103c0826103a3565b9050919050565b6103d0816103b5565b81146103db57600080fd5b50565b6000815190506103ed816103c7565b92915050565b60006020828403121561040957610408610379565b5b6000610417848285016103de565b91505092915050565b600080fd5b600080fd5b6000601f19601f8301169050919050565b7f4e487b7100000000000000000000000000000000000000000000000000000000600052604160045260246000fd5b6104738261042a565b810181811067ffffffffffffffff821117156104925761049161043b565b5b80604052505050565b60006104a561036f565b90506104b1828261046a565b919050565b600067ffffffffffffffff8211156104d1576104d061043b565b5b6104da8261042a565b9050602081019050919050565b60005b838110156105055780820151818401526020810190506104ea565b60008484015250505050565b600061052461051f846104b6565b61049b565b9050828152602081018484840111156105405761053f610425565b5b61054b8482856104e7565b509392505050565b600082601f83011261056857610567610420565b5b8151610578848260208601610511565b91505092915050565b60006020828403121561059757610596610379565b5b600082015167ffffffffffffffff8111156105b5576105b461037e565b5b6105c184828501610553565b91505092915050565b600081519050919050565b7f4e487b7100000000000000000000000000000000000000000000000000000000600052602260045260246000fd5b6000600282049050600182168061061c57607f821691505b60208210810361062f5761062e6105d5565b5b50919050565b60008190508160005260206000209050919050565b60006020601f8301049050919050565b600082821b905092915050565b6000600883026106977fffffffffffffffffffffffffffffffffffffffffffffffffffffffffffffffff8261065a565b6106a1868361065a565b95508019841693508086168417925050509392505050565b6000819050919050565b6000819050919050565b60006106e86106e36106de846106b9565b6106c3565b6106b9565b9050919050565b6000819050919050565b610702836106cd565b61071661070e826106ef565b848454610667565b825550505050565b600090565b61072b61071e565b6107368184846106f9565b505050565b5b8181101561075a5761074f600082610723565b60018101905061073c565b5050565b601f82111561079f5761077081610635565b6107798461064a565b81016020851015610788578190505b61079c6107948561064a565b83018261073b565b50505b505050565b600082821c905092915050565b60006107c2600019846008026107a4565b1980831691505092915050565b60006107db83836107b1565b9150826002028217905092915050565b6107f4826105ca565b67ffffffffffffffff81111561080d5761080c61043b565b5b6108178254610604565b61082282828561075e565b600060209050601f8311600181146108555760008415610843578287015190505b61084d85826107cf565b8655506108b5565b601f19841661086386610635565b60005b8281101561088b57848901518255600182019150602085019450602081019050610866565b868310156108a857848901516108a4601f8916826107b1565b8355505b6001600288020188555050505b505050505050565b600081905092915050565b60006108d3826105ca565b6108dd81856108bd565b93506108ed8185602086016104e7565b80840191505092915050565b600061090582856108c8565b915061091182846108c8565b91508190509392505050565b600081519050919050565b600081905092915050565b600061093e8261091d565b6109488185610928565b93506109588185602086016104e7565b80840191505092915050565b60006109708284610933565b915081905092915050565b610984816106b9565b811461098f57600080fd5b50565b6000815190506109a18161097b565b92915050565b6000602082840312156109bd576109bc610379565b5b60006109cb84828501610992565b91505092915050565b60805160a05161204e6109f9600039600061076601526000610798015261204e6000f3fe608060405234801561001057600080fd5b50600436106101735760003560e01c806370a08231116100de578063ba08765211610097578063ce96cb7711610071578063ce96cb77146104fc578063d905777e1461052c578063dd62ed3e1461055c578063ef8b30f71461058c57610173565b8063ba0876521461046c578063c63d75b61461049c578063c6e6f592146104cc57610173565b806370a082311461035e57806394bf804d1461038e57806395d89b41146103be578063a9059cbb146103dc578063b3d7f6b91461040c578063b460af941461043c57610173565b806323b872dd1161013057806323b872dd14610262578063313ce5671461029257806338d52e0f146102b0578063402d267d146102ce5780634cdad506146102fe5780636e553f651461032e57610173565b806301e1d1141461017857806306fdde031461019657806307a2d13a146101b4578063095ea7b3146101e45780630a28a4771461021457806318160ddd14610244575b600080fd5b6101806105bc565b60405161018d919061185e565b60405180910390f35b61019e610644565b6040516101ab9190611909565b60405180910390f35b6101ce60048036038101906101c9919061195c565b6106d6565b6040516101db919061185e565b60405180910390f35b6101fe60048036038101906101f991906119e7565b6106ea565b60405161020b9190611a42565b60405180910390f35b61022e6004803603810190610229919061195c565b61070d565b60405161023b919061185e565b60405180910390f35b61024c610721565b604051610259919061185e565b60405180910390f35b61027c60048036038101906102779190611a5d565b61072b565b6040516102899190611a42565b60405180910390f35b61029a61075a565b6040516102a79190611acc565b60405180910390f35b6102b8610794565b6040516102c59190611af6565b60405180910390f35b6102e860048036038101906102e39190611b11565b6107bc565b6040516102f5919061185e565b60405180910390f35b6103186004803603810190610313919061195c565b6107e6565b604051610325919061185e565b60405180910390f35b61034860048036038101906103439190611b3e565b6107fa565b604051610355919061185e565b60405180910390f35b61037860048036038101906103739190611b11565b61087c565b604051610385919061185e565b60405180910390f35b6103a860048036038101906103a39190611b3e565b6108c4565b6040516103b5919061185e565b60405180910390f35b6103c6610946565b6040516103d39190611909565b60405180910390f35b6103f660048036038101906103f191906119e7565b6109d8565b6040516104039190611a42565b60405180910390f35b6104266004803603810190610421919061195c565b6109fb565b604051610433919061185e565b60405180910390f35b61045660048036038101906104519190611b7e565b610a0f565b604051610463919061185e565b60405180910390f35b61048660048036038101906104819190611b7e565b610a93565b604051610493919061185e565b60405180910390f35b6104b660048036038101906104b19190611b11565b610b17565b6040516104c3919061185e565b60405180910390f35b6104e660048036038101906104e1919061195c565b610b41565b6040516104f3919061185e565b60405180910390f35b61051660048036038101906105119190611b11565b610b55565b604051610523919061185e565b60405180910390f35b61054660048036038101906105419190611b11565b610b71565b604051610553919061185e565b60405180910390f35b61057660048036038101906105719190611bd1565b610b83565b604051610583919061185e565b60405180910390f35b6105a660048036038101906105a1919061195c565b610c0a565b6040516105b3919061185e565b60405180910390f35b60006105c6610794565b73ffffffffffffffffffffffffffffffffffffffff166370a08231306040518263ffffffff1660e01b81526004016105fe9190611af6565b602060405180830381865afa15801561061b573d6000803e3d6000fd5b505050506040513d601f19601f8201168201806040525081019061063f9190611c26565b905090565b60606003805461065390611c82565b80601f016020809104026020016040519081016040528092919081815260200182805461067f90611c82565b80156106cc5780601f106106a1576101008083540402835291602001916106cc565b820191906000526020600020905b8154815290600101906020018083116106af57829003601f168201915b5050505050905090565b60006106e3826000610c1e565b9050919050565b6000806106f5610c77565b9050610702818585610c7f565b600191505092915050565b600061071a826001610c91565b9050919050565b6000600254905090565b600080610736610c77565b9050610743858285610cea565b61074e858585610d7f565b60019150509392505050565b6000610764610e73565b7f000000000000000000000000000000000000000000000000000000000000000061078f9190611ce2565b905090565b60007f0000000000000000000000000000000000000000000000000000000000000000905090565b60007fffffffffffffffffffffffffffffffffffffffffffffffffffffffffffffffff9050919050565b60006107f3826000610c1e565b9050919050565b600080610806836107bc565b905080841115610851578284826040517f79012fb200000000000000000000000000000000000000000000000000000000815260040161084893929190611d17565b60405180910390fd5b600061085c85610c0a565b9050610871610869610c77565b858784610e7c565b809250505092915050565b60008060008373ffffffffffffffffffffffffffffffffffffffff1673ffffffffffffffffffffffffffffffffffffffff168152602001908152602001600020549050919050565b6000806108d083610b17565b90508084111561091b578284826040517f284ff66700000000000000000000000000000000000000000000000000000000815260040161091293929190611d17565b60405180910390fd5b6000610926856109fb565b905061093b610933610c77565b858388610e7c565b809250505092915050565b60606004805461095590611c82565b80601f016020809104026020016040519081016040528092919081815260200182805461098190611c82565b80156109ce5780601f106109a3576101008083540402835291602001916109ce565b820191906000526020600020905b8154815290600101906020018083116109b157829003601f168201915b5050505050905090565b6000806109e3610c77565b90506109f0818585610d7f565b600191505092915050565b6000610a08826001610c1e565b9050919050565b600080610a1b83610b55565b905080851115610a66578285826040517ffe9cceec000000000000000000000000000000000000000000000000000000008152600401610a5d93929190611d17565b60405180910390fd5b6000610a718661070d565b9050610a87610a7e610c77565b86868985610f06565b80925050509392505050565b600080610a9f83610b71565b905080851115610aea578285826040517fb94abeec000000000000000000000000000000000000000000000000000000008152600401610ae193929190611d17565b60405180910390fd5b6000610af5866107e6565b9050610b0b610b02610c77565b8686848a610f06565b80925050509392505050565b60007fffffffffffffffffffffffffffffffffffffffffffffffffffffffffffffffff9050919050565b6000610b4e826000610c91565b9050919050565b6000610b6a610b638361087c565b6000610c1e565b9050919050565b6000610b7c8261087c565b9050919050565b6000600160008473ffffffffffffffffffffffffffffffffffffffff1673ffffffffffffffffffffffffffffffffffffffff16815260200190815260200160002060008373ffffffffffffffffffffffffffffffffffffffff1673ffffffffffffffffffffffffffffffffffffffff16815260200190815260200160002054905092915050565b6000610c17826000610c91565b9050919050565b6000610c6f6001610c2d6105bc565b610c379190611d4e565b610c3f610e73565b600a610c4b9190611eb5565b610c53610721565b610c5d9190611d4e565b8486610fe6909392919063ffffffff16565b905092915050565b600033905090565b610c8c8383836001611035565b505050565b6000610ce2610c9e610e73565b600a610caa9190611eb5565b610cb2610721565b610cbc9190611d4e565b6001610cc66105bc565b610cd09190611d4e565b8486610fe6909392919063ffffffff16565b905092915050565b6000610cf68484610b83565b90507fffffffffffffffffffffffffffffffffffffffffffffffffffffffffffffffff811015610d795781811015610d69578281836040517ffb8f41b2000000000000000000000000000000000000000000000000000000008152600401610d6093929190611d17565b60405180910390fd5b610d7884848484036000611035565b5b50505050565b600073ffffffffffffffffffffffffffffffffffffffff168373ffffffffffffffffffffffffffffffffffffffff1603610df15760006040517f96c6fd1e000000000000000000000000000000000000000000000000000000008152600401610de89190611af6565b60405180910390fd5b600073ffffffffffffffffffffffffffffffffffffffff168273ffffffffffffffffffffffffffffffffffffffff1603610e635760006040517fec442f05000000000000000000000000000000000000000000000000000000008152600401610e5a9190611af6565b60405180910390fd5b610e6e83838361120c565b505050565b60006003905090565b610e8f610e87610794565b853085611431565b610e9983826114b3565b8273ffffffffffffffffffffffffffffffffffffffff168473ffffffffffffffffffffffffffffffffffffffff167fdcbc1c05240f31ff3ad067ef1ee35ce4997762752e3a095284754544f4c709d78484604051610ef8929190611f00565b60405180910390a350505050565b8273ffffffffffffffffffffffffffffffffffffffff168573ffffffffffffffffffffffffffffffffffffffff1614610f4557610f44838683610cea565b5b610f4f8382611535565b610f61610f5a610794565b85846115b7565b8273ffffffffffffffffffffffffffffffffffffffff168473ffffffffffffffffffffffffffffffffffffffff168673ffffffffffffffffffffffffffffffffffffffff167ffbde797d201c681b91056529119e0b02407c7bb96a4a2c75c01fc9667232c8db8585604051610fd7929190611f00565b60405180910390a45050505050565b6000611016610ff483611636565b801561101157506000848061100c5761100b611f29565b5b868809115b611664565b611021868686611670565b61102b9190611d4e565b9050949350505050565b600073ffffffffffffffffffffffffffffffffffffffff168473ffffffffffffffffffffffffffffffffffffffff16036110a75760006040517fe602df0500000000000000000000000000000000000000000000000000000000815260040161109e9190611af6565b60405180910390fd5b600073ffffffffffffffffffffffffffffffffffffffff168373ffffffffffffffffffffffffffffffffffffffff16036111195760006040517f94280d620000000000000000000000000000000000000000000000000000000081526004016111109190611af6565b60405180910390fd5b81600160008673ffffffffffffffffffffffffffffffffffffffff1673ffffffffffffffffffffffffffffffffffffffff16815260200190815260200160002060008573ffffffffffffffffffffffffffffffffffffffff1673ffffffffffffffffffffffffffffffffffffffff168152602001908152602001600020819055508015611206578273ffffffffffffffffffffffffffffffffffffffff168473ffffffffffffffffffffffffffffffffffffffff167f8c5be1e5ebec7d5bd14f71427d1e84f3dd0314c0f7b2291e5b200ac8c7c3b925846040516111fd919061185e565b60405180910390a35b50505050565b600073ffffffffffffffffffffffffffffffffffffffff168373ffffffffffffffffffffffffffffffffffffffff160361125e5780600260008282546112529190611d4e565b92505081905550611331565b60008060008573ffffffffffffffffffffffffffffffffffffffff1673ffffffffffffffffffffffffffffffffffffffff168152602001908152602001600020549050818110156112ea578381836040517fe450d38c0000000000000000000000000000000000000000000000000000000081526004016112e193929190611d17565b60405180910390fd5b8181036000808673ffffffffffffffffffffffffffffffffffffffff1673ffffffffffffffffffffffffffffffffffffffff16815260200190815260200160002081905550505b600073ffffffffffffffffffffffffffffffffffffffff168273ffffffffffffffffffffffffffffffffffffffff160361137a57806002600082825403925050819055506113c7565b806000808473ffffffffffffffffffffffffffffffffffffffff1673ffffffffffffffffffffffffffffffffffffffff168152602001908152602001600020600082825401925050819055505b8173ffffffffffffffffffffffffffffffffffffffff168373ffffffffffffffffffffffffffffffffffffffff167fddf252ad1be2c89b69c2b068fc378daa952ba7f163c4a11628f55a4df523b3ef83604051611424919061185e565b60405180910390a3505050565b6114ad848573ffffffffffffffffffffffffffffffffffffffff166323b872dd86868660405160240161146693929190611f58565b604051602081830303815290604052915060e01b6020820180517bffffffffffffffffffffffffffffffffffffffffffffffffffffffff8381831617835250505050611758565b50505050565b600073ffffffffffffffffffffffffffffffffffffffff168273ffffffffffffffffffffffffffffffffffffffff16036115255760006040517fec442f0500000000000000000000000000000000000000000000000000000000815260040161151c9190611af6565b60405180910390fd5b6115316000838361120c565b5050565b600073ffffffffffffffffffffffffffffffffffffffff168273ffffffffffffffffffffffffffffffffffffffff16036115a75760006040517f96c6fd1e00000000000000000000000000000000000000000000000000000000815260040161159e9190611af6565b60405180910390fd5b6115b38260008361120c565b5050565b611631838473ffffffffffffffffffffffffffffffffffffffff1663a9059cbb85856040516024016115ea929190611f8f565b604051602081830303815290604052915060e01b6020820180517bffffffffffffffffffffffffffffffffffffffffffffffffffffffff8381831617835250505050611758565b505050565b60006001600283600381111561164f5761164e611fb8565b5b6116599190611fe7565b60ff16149050919050565b60008115159050919050565b600080600061167f86866117fa565b91509150600082036116a55783818161169b5761169a611f29565b5b0492505050611751565b8184116116c5576116c46116bf6000861460126011611819565b611833565b5b600084868809905081811183039250808203915060008560000386169050808604955080830492506001818260000304019050808402831792506000600287600302189050808702600203810290508087026002038102905080870260020381029050808702600203810290508087026002038102905080870260020381029050808402955050505050505b9392505050565b600080602060008451602086016000885af18061177b576040513d6000823e3d81fd5b3d9250600051915050600082146117965760018114156117b2565b60008473ffffffffffffffffffffffffffffffffffffffff163b145b156117f457836040517f5274afe70000000000000000000000000000000000000000000000000000000081526004016117eb9190611af6565b60405180910390fd5b50505050565b6000806000198385098385029150818110828203039250509250929050565b600061182484611664565b82841802821890509392505050565b634e487b71600052806020526024601cfd5b6000819050919050565b61185881611845565b82525050565b6000602082019050611873600083018461184f565b92915050565b600081519050919050565b600082825260208201905092915050565b60005b838110156118b3578082015181840152602081019050611898565b60008484015250505050565b6000601f19601f8301169050919050565b60006118db82611879565b6118e58185611884565b93506118f5818560208601611895565b6118fe816118bf565b840191505092915050565b6000602082019050818103600083015261192381846118d0565b905092915050565b600080fd5b61193981611845565b811461194457600080fd5b50565b60008135905061195681611930565b92915050565b6000602082840312156119725761197161192b565b5b600061198084828501611947565b91505092915050565b600073ffffffffffffffffffffffffffffffffffffffff82169050919050565b60006119b482611989565b9050919050565b6119c4816119a9565b81146119cf57600080fd5b50565b6000813590506119e1816119bb565b92915050565b600080604083850312156119fe576119fd61192b565b5b6000611a0c858286016119d2565b9250506020611a1d85828601611947565b9150509250929050565b60008115159050919050565b611a3c81611a27565b82525050565b6000602082019050611a576000830184611a33565b92915050565b600080600060608486031215611a7657611a7561192b565b5b6000611a84868287016119d2565b9350506020611a95868287016119d2565b9250506040611aa686828701611947565b9150509250925092565b600060ff82169050919050565b611ac681611ab0565b82525050565b6000602082019050611ae16000830184611abd565b92915050565b611af0816119a9565b82525050565b6000602082019050611b0b6000830184611ae7565b92915050565b600060208284031215611b2757611b2661192b565b5b6000611b35848285016119d2565b91505092915050565b60008060408385031215611b5557611b5461192b565b5b6000611b6385828601611947565b9250506020611b74858286016119d2565b9150509250929050565b600080600060608486031215611b9757611b9661192b565b5b6000611ba586828701611947565b9350506020611bb6868287016119d2565b9250506040611bc7868287016119d2565b9150509250925092565b60008060408385031215611be857611be761192b565b5b6000611bf6858286016119d2565b9250506020611c07858286016119d2565b9150509250929050565b600081519050611c2081611930565b92915050565b600060208284031215611c3c57611c3b61192b565b5b6000611c4a84828501611c11565b91505092915050565b7f4e487b7100000000000000000000000000000000000000000000000000000000600052602260045260246000fd5b60006002820490506001821680611c9a57607f821691505b602082108103611cad57611cac611c53565b5b50919050565b7f4e487b7100000000000000000000000000000000000000000000000000000000600052601160045260246000fd5b6000611ced82611ab0565b9150611cf883611ab0565b9250828201905060ff811115611d1157611d10611cb3565b5b92915050565b6000606082019050611d2c6000830186611ae7565b611d39602083018561184f565b611d46604083018461184f565b949350505050565b6000611d5982611845565b9150611d6483611845565b9250828201905080821115611d7c57611d7b611cb3565b5b92915050565b60008160011c9050919050565b6000808291508390505b6001851115611dd957808604811115611db557611db4611cb3565b5b6001851615611dc45780820291505b8081029050611dd285611d82565b9450611d99565b94509492505050565b600082611df25760019050611eae565b81611e005760009050611eae565b8160018114611e165760028114611e2057611e4f565b6001915050611eae565b60ff841115611e3257611e31611cb3565b5b8360020a915084821115611e4957611e48611cb3565b5b50611eae565b5060208310610133831016604e8410600b8410161715611e845782820a905083811115611e7f57611e7e611cb3565b5b611eae565b611e918484846001611d8f565b92509050818404811115611ea857611ea7611cb3565b5b81810290505b9392505050565b6000611ec082611845565b9150611ecb83611ab0565b9250611ef87fffffffffffffffffffffffffffffffffffffffffffffffffffffffffffffffff8484611de2565b905092915050565b6000604082019050611f15600083018561184f565b611f22602083018461184f565b9392505050565b7f4e487b7100000000000000000000000000000000000000000000000000000000600052601260045260246000fd5b6000606082019050611f6d6000830186611ae7565b611f7a6020830185611ae7565b611f87604083018461184f565b949350505050565b6000604082019050611fa46000830185611ae7565b611fb1602083018461184f565b9392505050565b7f4e487b7100000000000000000000000000000000000000000000000000000000600052602160045260246000fd5b6000611ff282611ab0565b9150611ffd83611ab0565b92508261200d5761200c611f29565b5b82820690509291505056fea26469706673582212209b6e31204b57ffbd0c0f7b90b449c82d6f831f511ca1e34f9f9c037d05e1d25264736f6c634300081c0033",
  "linkReferences": {},
  "deployedLinkReferences": {}
}