{
  "_format": "hh-sol-artifact-1",
  "contractName": "PaymasterUSDCChainlink",
  "sourceName": "contracts/PaymasterUSDCChainlink.sol",
  "abi": [
    {
      "inputs": [
        {
          "internalType": "address",
          "name": "initialOwner",
          "type": "address"
        }
      ],
      "stateMutability": "nonpayable",
      "type": "constructor"
    },
    {
      "inputs": [],
      "name": "InvalidShortString",
      "type": "error"
    },
    {
      "inputs": [],
      "name": "OutOfRangeAccess",
      "type": "error"
    },
    {
      "inputs": [
        {
          "internalType": "address",
          "name": "owner",
          "type": "address"
        }
      ],
      "name": "OwnableInvalidOwner",
      "type": "error"
    },
    {
      "inputs": [
        {
          "internalType": "address",
          "name": "account",
          "type": "address"
        }
      ],
      "name": "OwnableUnauthorizedAccount",
      "type": "error"
    },
    {
      "inputs": [
        {
          "internalType": "address",
          "name": "sender",
          "type": "address"
        }
      ],
      "name": "PaymasterUnauthorized",
      "type": "error"
    },
    {
      "inputs": [
        {
          "internalType": "uint256",
          "name": "value",
          "type": "uint256"
        }
      ],
      "name": "SafeCastOverflowedUintToInt",
      "type": "error"
    },
    {
      "inputs": [
        {
          "internalType": "address",
          "name": "token",
          "type": "address"
        }
      ],
      "name": "SafeERC20FailedOperation",
      "type": "error"
    },
    {
      "inputs": [
        {
          "internalType": "string",
          "name": "str",
          "type": "string"
        }
      ],
      "name": "StringTooLong",
      "type": "error"
    },
    {
      "anonymous": false,
      "inputs": [],
      "name": "EIP712DomainChanged",
      "type": "event"
    },
    {
      "anonymous": false,
      "inputs": [
        {
          "indexed": true,
          "internalType": "address",
          "name": "previousOwner",
          "type": "address"
        },
        {
          "indexed": true,
          "internalType": "address",
          "name": "newOwner",
          "type": "address"
        }
      ],
      "name": "OwnershipTransferred",
      "type": "event"
    },
    {
      "anonymous": false,
      "inputs": [
        {
          "indexed": true,
          "internalType": "bytes32",
          "name": "userOpHash",
          "type": "bytes32"
        },
        {
          "indexed": true,
          "internalType": "address",
          "name": "user",
          "type": "address"
        },
        {
          "indexed": true,
          "internalType": "address",
          "name": "guarantor",
          "type": "address"
        },
        {
          "indexed": false,
          "internalType": "uint256",
          "name": "tokenAmount",
          "type": "uint256"
        },
        {
          "indexed": false,
          "internalType": "uint256",
          "name": "tokenPrice",
          "type": "uint256"
        },
        {
          "indexed": false,
          "internalType": "bool",
          "name": "paidByGuarantor",
          "type": "bool"
        }
      ],
      "name": "UserOperationSponsored",
      "type": "event"
    },
    {
      "inputs": [],
      "name": "ETH_USD_ORACLE",
      "outputs": [
        {
          "internalType": "contract AggregatorV3Interface",
          "name": "",
          "type": "address"
        }
      ],
      "stateMutability": "view",
      "type": "function"
    },
    {
      "inputs": [],
      "name": "USDC_USD_ORACLE",
      "outputs": [
        {
          "internalType": "contract AggregatorV3Interface",
          "name": "",
          "type": "address"
        }
      ],
      "stateMutability": "view",
      "type": "function"
    },
    {
      "inputs": [
        {
          "internalType": "uint32",
          "name": "unstakeDelaySec",
          "type": "uint32"
        }
      ],
      "name": "addStake",
      "outputs": [],
      "stateMutability": "payable",
      "type": "function"
    },
    {
      "inputs": [],
      "name": "deposit",
      "outputs": [],
      "stateMutability": "payable",
      "type": "function"
    },
    {
      "inputs": [],
      "name": "eip712Domain",
      "outputs": [
        {
          "internalType": "bytes1",
          "name": "fields",
          "type": "bytes1"
        },
        {
          "internalType": "string",
          "name": "name",
          "type": "string"
        },
        {
          "internalType": "string",
          "name": "version",
          "type": "string"
        },
        {
          "internalType": "uint256",
          "name": "chainId",
          "type": "uint256"
        },
        {
          "internalType": "address",
          "name": "verifyingContract",
          "type": "address"
        },
        {
          "internalType": "bytes32",
          "name": "salt",
          "type": "bytes32"
        },
        {
          "internalType": "uint256[]",
          "name": "extensions",
          "type": "uint256[]"
        }
      ],
      "stateMutability": "view",
      "type": "function"
    },
    {
      "inputs": [],
      "name": "entryPoint",
      "outputs": [
        {
          "internalType": "contract IEntryPoint",
          "name": "",
          "type": "address"
        }
      ],
      "stateMutability": "view",
      "type": "function"
    },
    {
      "inputs": [],
      "name": "liveness",
      "outputs": [
        {
          "internalType": "uint256",
          "name": "",
          "type": "uint256"
        }
      ],
      "stateMutability": "view",
      "type": "function"
    },
    {
      "inputs": [],
      "name": "owner",
      "outputs": [
        {
          "internalType": "address",
          "name": "",
          "type": "address"
        }
      ],
      "stateMutability": "view",
      "type": "function"
    },
    {
      "inputs": [
        {
          "internalType": "enum IPaymaster.PostOpMode",
          "name": "mode",
          "type": "uint8"
        },
        {
          "internalType": "bytes",
          "name": "context",
          "type": "bytes"
        },
        {
          "internalType": "uint256",
          "name": "actualGasCost",
          "type": "uint256"
        },
        {
          "internalType": "uint256",
          "name": "actualUserOpFeePerGas",
          "type": "uint256"
        }
      ],
      "name": "postOp",
      "outputs": [],
      "stateMutability": "nonpayable",
      "type": "function"
    },
    {
      "inputs": [],
      "name": "renounceOwnership",
      "outputs": [],
      "stateMutability": "nonpayable",
      "type": "function"
    },
    {
      "inputs": [
        {
          "internalType": "address",
          "name": "newOwner",
          "type": "address"
        }
      ],
      "name": "transferOwnership",
      "outputs": [],
      "stateMutability": "nonpayable",
      "type": "function"
    },
    {
      "inputs": [],
      "name": "unlockStake",
      "outputs": [],
      "stateMutability": "nonpayable",
      "type": "function"
    },
    {
      "inputs": [
        {
          "components": [
            {
              "internalType": "address",
              "name": "sender",
              "type": "address"
            },
            {
              "internalType": "uint256",
              "name": "nonce",
              "type": "uint256"
            },
            {
              "internalType": "bytes",
              "name": "initCode",
              "type": "bytes"
            },
            {
              "internalType": "bytes",
              "name": "callData",
              "type": "bytes"
            },
            {
              "internalType": "bytes32",
              "name": "accountGasLimits",
              "type": "bytes32"
            },
            {
              "internalType": "uint256",
              "name": "preVerificationGas",
              "type": "uint256"
            },
            {
              "internalType": "bytes32",
              "name": "gasFees",
              "type": "bytes32"
            },
            {
              "internalType": "bytes",
              "name": "paymasterAndData",
              "type": "bytes"
            },
            {
              "internalType": "bytes",
              "name": "signature",
              "type": "bytes"
            }
          ],
          "internalType": "struct PackedUserOperation",
          "name": "userOp",
          "type": "tuple"
        },
        {
          "internalType": "bytes32",
          "name": "userOpHash",
          "type": "bytes32"
        },
        {
          "internalType": "uint256",
          "name": "maxCost",
          "type": "uint256"
        }
      ],
      "name": "validatePaymasterUserOp",
      "outputs": [
        {
          "internalType": "bytes",
          "name": "context",
          "type": "bytes"
        },
        {
          "internalType": "uint256",
          "name": "validationData",
          "type": "uint256"
        }
      ],
      "stateMutability": "nonpayable",
      "type": "function"
    },
    {
      "inputs": [
        {
          "internalType": "address payable",
          "name": "to",
          "type": "address"
        },
        {
          "internalType": "uint256",
          "name": "value",
          "type": "uint256"
        }
      ],
      "name": "withdraw",
      "outputs": [],
      "stateMutability": "nonpayable",
      "type": "function"
    },
    {
      "inputs": [
        {
          "internalType": "address payable",
          "name": "to",
          "type": "address"
        }
      ],
      "name": "withdrawStake",
      "outputs": [],
      "stateMutability": "nonpayable",
      "type": "function"
    },
    {
      "inputs": [
        {
          "internalType": "contract IERC20",
          "name": "token",
          "type": "address"
        },
        {
          "internalType": "address",
          "name": "recipient",
          "type": "address"
        },
        {
          "internalType": "uint256",
          "name": "amount",
          "type": "uint256"
        }
      ],
      "name": "withdrawTokens",
      "outputs": [],
      "stateMutability": "nonpayable",
      "type": "function"
    }
  ],
  "bytecode": "0x61016060405234801561001157600080fd5b50604051613f7f380380613f7f83398181016040528101906100339190610418565b806040518060400160405280601281526020017f5061796d617374657245524332304d6f636b00000000000000000000000000008152506040518060400160405280600181526020017f31000000000000000000000000000000000000000000000000000000000000008152506100b46000836101d260201b90919060201c565b61012081815250506100d06001826101d260201b90919060201c565b6101408181525050818051906020012060e08181525050808051906020012061010081815250504660a0818152505061010d61022260201b60201c565b608081815250503073ffffffffffffffffffffffffffffffffffffffff1660c08173ffffffffffffffffffffffffffffffffffffffff16815250505050600073ffffffffffffffffffffffffffffffffffffffff168173ffffffffffffffffffffffffffffffffffffffff16036101bc5760006040517f1e4fbdf70000000000000000000000000000000000000000000000000000000081526004016101b39190610454565b60405180910390fd5b6101cb8161027d60201b60201c565b505061094a565b60006020835110156101f4576101ed8361034360201b60201c565b905061021c565b82610204836103ab60201b60201c565b600001908161021391906106bf565b5060ff60001b90505b92915050565b60007f8b73c3c69bb8fe3d512ecc4cf759cc79239f7b179b0ffacaa9a75d522b39400f60e0516101005146306040516020016102629594939291906107b9565b60405160208183030381529060405280519060200120905090565b6000600260009054906101000a900473ffffffffffffffffffffffffffffffffffffffff16905081600260006101000a81548173ffffffffffffffffffffffffffffffffffffffff021916908373ffffffffffffffffffffffffffffffffffffffff1602179055508173ffffffffffffffffffffffffffffffffffffffff168173ffffffffffffffffffffffffffffffffffffffff167f8be0079c531659141344cd1fd0a4f28419497f9722a3daafe3b4186f6b6457e060405160405180910390a35050565b600080829050601f8151111561039057826040517f305a27a90000000000000000000000000000000000000000000000000000000081526004016103879190610891565b60405180910390fd5b80518161039c906108e3565b60001c1760001b915050919050565b6000819050919050565b600080fd5b600073ffffffffffffffffffffffffffffffffffffffff82169050919050565b60006103e5826103ba565b9050919050565b6103f5816103da565b811461040057600080fd5b50565b600081519050610412816103ec565b92915050565b60006020828403121561042e5761042d6103b5565b5b600061043c84828501610403565b91505092915050565b61044e816103da565b82525050565b60006020820190506104696000830184610445565b92915050565b600081519050919050565b7f4e487b7100000000000000000000000000000000000000000000000000000000600052604160045260246000fd5b7f4e487b7100000000000000000000000000000000000000000000000000000000600052602260045260246000fd5b600060028204905060018216806104f057607f821691505b602082108103610503576105026104a9565b5b50919050565b60008190508160005260206000209050919050565b60006020601f8301049050919050565b600082821b905092915050565b60006008830261056b7fffffffffffffffffffffffffffffffffffffffffffffffffffffffffffffffff8261052e565b610575868361052e565b95508019841693508086168417925050509392505050565b6000819050919050565b6000819050919050565b60006105bc6105b76105b28461058d565b610597565b61058d565b9050919050565b6000819050919050565b6105d6836105a1565b6105ea6105e2826105c3565b84845461053b565b825550505050565b600090565b6105ff6105f2565b61060a8184846105cd565b505050565b5b8181101561062e576106236000826105f7565b600181019050610610565b5050565b601f8211156106735761064481610509565b61064d8461051e565b8101602085101561065c578190505b6106706106688561051e565b83018261060f565b50505b505050565b600082821c905092915050565b600061069660001984600802610678565b1980831691505092915050565b60006106af8383610685565b9150826002028217905092915050565b6106c88261046f565b67ffffffffffffffff8111156106e1576106e061047a565b5b6106eb82546104d8565b6106f6828285610632565b600060209050601f8311600181146107295760008415610717578287015190505b61072185826106a3565b865550610789565b601f19841661073786610509565b60005b8281101561075f5784890151825560018201915060208501945060208101905061073a565b8683101561077c5784890151610778601f891682610685565b8355505b6001600288020188555050505b505050505050565b6000819050919050565b6107a481610791565b82525050565b6107b38161058d565b82525050565b600060a0820190506107ce600083018861079b565b6107db602083018761079b565b6107e8604083018661079b565b6107f560608301856107aa565b6108026080830184610445565b9695505050505050565b600082825260208201905092915050565b60005b8381101561083b578082015181840152602081019050610820565b60008484015250505050565b6000601f19601f8301169050919050565b60006108638261046f565b61086d818561080c565b935061087d81856020860161081d565b61088681610847565b840191505092915050565b600060208201905081810360008301526108ab8184610858565b905092915050565b600081519050919050565b6000819050602082019050919050565b60006108da8251610791565b80915050919050565b60006108ee826108b3565b826108f8846108be565b9050610903816108ce565b925060208210156109435761093e7fffffffffffffffffffffffffffffffffffffffffffffffffffffffffffffffff8360200360080261052e565b831692505b5050919050565b60805160a05160c05160e0516101005161012051610140516135db6109a4600039600061107e0152600061104301526000612101015260006120e001526000611d2d01526000611d8301526000611dac01526135db6000f3fe6080604052600436106100f35760003560e01c80638da5cb5b1161008a578063d0ad09a711610059578063d0ad09a7146102d8578063d0e30db014610303578063f2fde38b1461030d578063f3fef3a314610336576100f3565b80638da5cb5b14610242578063b0d691fe1461026d578063bb9fe6bf14610298578063c23a5cea146102af576100f3565b8063715018a6116100c6578063715018a6146101a6578063718176e5146101bd5780637c627b21146101e857806384b0196e14610211576100f3565b80630396cb60146100f857806352b7512c146101145780635e35359e146101525780636ad0690a1461017b575b600080fd5b610112600480360381019061010d91906122d1565b61035f565b005b34801561012057600080fd5b5061013b6004803603810190610136919061238f565b6103d5565b60405161014992919061249d565b60405180910390f35b34801561015e57600080fd5b5061017960048036038101906101749190612569565b6103f8565b005b34801561018757600080fd5b506101906104d4565b60405161019d91906125bc565b60405180910390f35b3480156101b257600080fd5b506101bb6104df565b005b3480156101c957600080fd5b506101d26104f3565b6040516101df9190612636565b60405180910390f35b3480156101f457600080fd5b5061020f600480360381019061020a91906126db565b61050b565b005b34801561021d57600080fd5b50610226610527565b60405161023997969594939291906128cf565b60405180910390f35b34801561024e57600080fd5b506102576105d1565b6040516102649190612953565b60405180910390f35b34801561027957600080fd5b506102826105fb565b60405161028f919061298f565b60405180910390f35b3480156102a457600080fd5b506102ad610617565b005b3480156102bb57600080fd5b506102d660048036038101906102d191906129e8565b610688565b005b3480156102e457600080fd5b506102ed610705565b6040516102fa9190612636565b60405180910390f35b61030b61071d565b005b34801561031957600080fd5b50610334600480360381019061032f9190612a15565b610792565b005b34801561034257600080fd5b5061035d60048036038101906103589190612a42565b610818565b005b6103676105fb565b73ffffffffffffffffffffffffffffffffffffffff16630396cb6034836040518363ffffffff1660e01b81526004016103a09190612a91565b6000604051808303818588803b1580156103b957600080fd5b505af11580156103cd573d6000803e3d6000fd5b505050505050565b606060006103e1610898565b6103ec858585610917565b91509150935093915050565b610400610aab565b7fffffffffffffffffffffffffffffffffffffffffffffffffffffffffffffffff81036104a4578273ffffffffffffffffffffffffffffffffffffffff166370a08231306040518263ffffffff1660e01b81526004016104609190612953565b602060405180830381865afa15801561047d573d6000803e3d6000fd5b505050506040513d601f19601f820116820180604052508101906104a19190612ac1565b90505b6104cf82828573ffffffffffffffffffffffffffffffffffffffff16610ab59092919063ffffffff16565b505050565b600062015180905090565b6104e7610b34565b6104f16000610bbb565b565b73694aa1769357215de4fac081bf1f309adc32530681565b610513610898565b6105208585858585610c81565b5050505050565b60006060806000806000606061053b61103a565b610543611075565b46306000801b600067ffffffffffffffff81111561056457610563612aee565b5b6040519080825280602002602001820160405280156105925781602001602082028036833780820191505090505b507f0f00000000000000000000000000000000000000000000000000000000000000959493929190965096509650965096509650965090919293949596565b6000600260009054906101000a900473ffffffffffffffffffffffffffffffffffffffff16905090565b6000734337084d9e255ff0702461cf8895ce9e3b5ff108905090565b61061f610aab565b6106276105fb565b73ffffffffffffffffffffffffffffffffffffffff1663bb9fe6bf6040518163ffffffff1660e01b8152600401600060405180830381600087803b15801561066e57600080fd5b505af1158015610682573d6000803e3d6000fd5b50505050565b610690610aab565b6106986105fb565b73ffffffffffffffffffffffffffffffffffffffff1663c23a5cea826040518263ffffffff1660e01b81526004016106d09190612b2c565b600060405180830381600087803b1580156106ea57600080fd5b505af11580156106fe573d6000803e3d6000fd5b5050505050565b73a2f78ab2355fe2f984d808b5cee7fd0a93d5270e81565b6107256105fb565b73ffffffffffffffffffffffffffffffffffffffff1663b760faf934306040518363ffffffff1660e01b815260040161075e9190612953565b6000604051808303818588803b15801561077757600080fd5b505af115801561078b573d6000803e3d6000fd5b5050505050565b61079a610b34565b600073ffffffffffffffffffffffffffffffffffffffff168173ffffffffffffffffffffffffffffffffffffffff160361080c5760006040517f1e4fbdf70000000000000000000000000000000000000000000000000000000081526004016108039190612953565b60405180910390fd5b61081581610bbb565b50565b610820610aab565b6108286105fb565b73ffffffffffffffffffffffffffffffffffffffff1663205c287883836040518363ffffffff1660e01b8152600401610862929190612b47565b600060405180830381600087803b15801561087c57600080fd5b505af1158015610890573d6000803e3d6000fd5b505050505050565b60003390506108a56105fb565b73ffffffffffffffffffffffffffffffffffffffff168173ffffffffffffffffffffffffffffffffffffffff161461091457806040517f327499a700000000000000000000000000000000000000000000000000000000815260040161090b9190612953565b60405180910390fd5b50565b6060600080600080600061092b89896110b0565b935093509350935060006109b883610941611115565b61094a8d611125565b61099461753061afc8600073ffffffffffffffffffffffffffffffffffffffff168973ffffffffffffffffffffffffffffffffffffffff1614151561115b9092919063ffffffff16565b61099e9190612b9f565b8b6109a99190612be1565b6111759092919063ffffffff16565b905060018514158015610a415750610a40600073ffffffffffffffffffffffffffffffffffffffff168373ffffffffffffffffffffffffffffffffffffffff1614610a035782610a17565b8a6000016020810190610a169190612a15565b5b30838773ffffffffffffffffffffffffffffffffffffffff1661125d909392919063ffffffff16565b5b610a5c57604051806020016040528060008152506001610a9a565b888482858d6000016020810190610a739190612a15565b86604051602001610a8996959493929190612cc8565b604051602081830303815290604052855b965096505050505050935093915050565b610ab3610b34565b565b610b2f838473ffffffffffffffffffffffffffffffffffffffff1663a9059cbb8585604051602401610ae8929190612d38565b604051602081830303815290604052915060e01b6020820180517bffffffffffffffffffffffffffffffffffffffffffffffffffffffff83818316178352505050506112e5565b505050565b610b3c611387565b73ffffffffffffffffffffffffffffffffffffffff16610b5a6105d1565b73ffffffffffffffffffffffffffffffffffffffff1614610bb957610b7d611387565b6040517f118cdaa7000000000000000000000000000000000000000000000000000000008152600401610bb09190612953565b60405180910390fd5b565b6000600260009054906101000a900473ffffffffffffffffffffffffffffffffffffffff16905081600260006101000a81548173ffffffffffffffffffffffffffffffffffffffff021916908373ffffffffffffffffffffffffffffffffffffffff1602179055508173ffffffffffffffffffffffffffffffffffffffff168173ffffffffffffffffffffffffffffffffffffffff167f8be0079c531659141344cd1fd0a4f28419497f9722a3daafe3b4186f6b6457e060405160405180910390a35050565b60008484600090602092610c9793929190612d6b565b90610ca29190612dbe565b905060008585602090603492610cba93929190612d6b565b90610cc59190612e49565b60601c905060008686603490605492610ce093929190612d6b565b90610ceb9190612dbe565b60001c905060008787605490607492610d0693929190612d6b565b90610d119190612dbe565b60001c905060008888607490608892610d2c93929190612d6b565b90610d379190612e49565b60601c905060008989608890609c92610d5293929190612d6b565b90610d5d9190612e49565b60601c90506000610ddf84610d70611115565b8a610dbb61753061afc8600073ffffffffffffffffffffffffffffffffffffffff168973ffffffffffffffffffffffffffffffffffffffff1614151561115b9092919063ffffffff16565b610dc59190612b9f565b8c610dd09190612be1565b6111759092919063ffffffff16565b9050600073ffffffffffffffffffffffffffffffffffffffff168273ffffffffffffffffffffffffffffffffffffffff1603610ebc57610e4b838287610e259190612ea8565b8873ffffffffffffffffffffffffffffffffffffffff16610ab59092919063ffffffff16565b600073ffffffffffffffffffffffffffffffffffffffff168373ffffffffffffffffffffffffffffffffffffffff16887fc17fe1e2287d25ac4fb440d6972be81ad64f6c3d0b8ca6ac1f6c9c6011250c5284886000604051610eaf93929190612ef7565b60405180910390a461102c565b610ee98330838973ffffffffffffffffffffffffffffffffffffffff1661125d909392919063ffffffff16565b15610f8957610f1982868873ffffffffffffffffffffffffffffffffffffffff16610ab59092919063ffffffff16565b8173ffffffffffffffffffffffffffffffffffffffff168373ffffffffffffffffffffffffffffffffffffffff16887fc17fe1e2287d25ac4fb440d6972be81ad64f6c3d0b8ca6ac1f6c9c6011250c5284886000604051610f7c93929190612ef7565b60405180910390a461102b565b610fbf828287610f999190612ea8565b8873ffffffffffffffffffffffffffffffffffffffff16610ab59092919063ffffffff16565b8173ffffffffffffffffffffffffffffffffffffffff168373ffffffffffffffffffffffffffffffffffffffff16887fc17fe1e2287d25ac4fb440d6972be81ad64f6c3d0b8ca6ac1f6c9c6011250c528488600160405161102293929190612ef7565b60405180910390a45b5b505050505050505050505050565b606061107060007f000000000000000000000000000000000000000000000000000000000000000061138f90919063ffffffff16565b905090565b60606110ab60017f000000000000000000000000000000000000000000000000000000000000000061138f90919063ffffffff16565b905090565b6000806000806000806110c28861143f565b915091506000806110d28a6114d0565b915091506110e9828561162b90919063ffffffff16565b731c7d4b196cb0c7b01d743fbc6116a902379c7238848397509750975097505050505092959194509250565b6000670de0b6b3a7640000905090565b600061113f60108360c0013561171790919063ffffffff16565b60801c6fffffffffffffffffffffffffffffffff169050919050565b60006111668461176c565b82841802821890509392505050565b60008060006111848686611778565b91509150600082036111aa578381816111a05761119f612f2e565b5b0492505050611256565b8184116111ca576111c96111c4600086146012601161115b565b611797565b5b600084868809905081811183039250808203915060008560000386169050808604955080830492506001818260000304019050808402831792506000600287600302189050808702600203810290508087026002038102905080870260020381029050808702600203810290508087026002038102905080870260020381029050808402955050505050505b9392505050565b60006112db858673ffffffffffffffffffffffffffffffffffffffff166323b872dd87878760405160240161129493929190612f5d565b604051602081830303815290604052915060e01b6020820180517bffffffffffffffffffffffffffffffffffffffffffffffffffffffff83818316178352505050506117a9565b9050949350505050565b600080602060008451602086016000885af180611308576040513d6000823e3d81fd5b3d92506000519150506000821461132357600181141561133f565b60008473ffffffffffffffffffffffffffffffffffffffff163b145b1561138157836040517f5274afe70000000000000000000000000000000000000000000000000000000081526004016113789190612953565b60405180910390fd5b50505050565b600033905090565b606060ff60001b83146113ac576113a583611809565b9050611439565b8180546113b890612fc3565b80601f01602080910402602001604051908101604052809291908181526020018280546113e490612fc3565b80156114315780601f1061140657610100808354040283529160200191611431565b820191906000526020600020905b81548152906001019060200180831161141457829003601f168201915b505050505090505b92915050565b60008060008061146273694aa1769357215de4fac081bf1f309adc32530661187d565b9150915060008061148673a2f78ab2355fe2f984d808b5cee7fd0a93d5270e61187d565b9150915061149d828561162b90919063ffffffff16565b836114ae6114a9611115565b611972565b836114b99190612ffe565b6114c39190613076565b9550955050505050915091565b6000803660006114df856119e1565b9150915060148282905010156114fe5760016000935093505050611626565b818160009060149261151293929190612d6b565b9061151d9190612e49565b60601c9250600073ffffffffffffffffffffffffffffffffffffffff168373ffffffffffffffffffffffffffffffffffffffff160361156157600093505050611626565b6000828260149060169261157793929190612d6b565b90611582919061310c565b60f01c9050366000848460169085601661159c9190613179565b61ffff16926115ad93929190612d6b565b91509150611610866115c66115c18b611a35565b611b38565b84848080601f016020809104026020016040519081016040528093929190818152602001838380828437600081840152601f19601f82011690508083019250505050505050611b52565b61161b57600161161e565b60005b965050505050505b915091565b60008060008061163a86611c01565b925092509250600080600061164e88611c01565b92509250925060008073ffffffffffffffffffffffffffffffffffffffff168773ffffffffffffffffffffffffffffffffffffffff161480156116bd5750600073ffffffffffffffffffffffffffffffffffffffff168473ffffffffffffffffffffffffffffffffffffffff16145b905060006116db8765ffffffffffff168565ffffffffffff16611c7b565b905060006116f98765ffffffffffff168565ffffffffffff16611c92565b9050611706838383611ca9565b995050505050505050505092915050565b600060108260ff161115611757576040517f3ba9763600000000000000000000000000000000000000000000000000000000815260040160405180910390fd5b60001960801b83836008021b16905092915050565b60008115159050919050565b6000806000198385098385029150818110828203039250509250929050565b634e487b71600052806020526024601cfd5b6000806000806020600086516020880160008a5af192503d915060005190508280156117fe5750600082146117e157600181146117fd565b60008673ffffffffffffffffffffffffffffffffffffffff163b115b5b935050505092915050565b6060600061181683611ccb565b90506000602067ffffffffffffffff81111561183557611834612aee565b5b6040519080825280601f01601f1916602001820160405280156118675781602001600182028036833780820191505090505b5090508181528360208201528092505050919050565b6000806000806000808673ffffffffffffffffffffffffffffffffffffffff1663feaf968c6040518163ffffffff1660e01b815260040160a060405180830381865afa1580156118d1573d6000803e3d6000fd5b505050506040513d601f19601f820116820180604052508101906118f5919061321d565b945094505093509350600083148061192457508369ffffffffffffffffffff168169ffffffffffffffffffff16105b8061192f5750600082145b8061194b575061193d6104d4565b82426119499190612ea8565b115b156119615760016000955095505050505061196d565b60008395509550505050505b915091565b60007f7fffffffffffffffffffffffffffffffffffffffffffffffffffffffffffffff8211156119d957816040517f24775e060000000000000000000000000000000000000000000000000000000081526004016119d091906125bc565b60405180910390fd5b819050919050565b3660006034838060e001906119f691906132a7565b905010611a2357828060e00190611a0d91906132a7565b6034908092611a1e93929190612d6b565b611a2c565b611a2b611d1b565b5b91509150915091565b60007f33d69c17b615958781053ddcb147da2cbd91bea706b6228720400d1c4b5167a5826000016020810190611a6b9190612a15565b8360200135848060400190611a8091906132a7565b604051611a8e929190613349565b6040518091039020858060600190611aa691906132a7565b604051611ab4929190613349565b604051809103902086608001358760a001358860c00135898060e00190611adb91906132a7565b600090604892611aed93929190612d6b565b604051611afb929190613362565b6040518091039020604051602001611b1b9998979695949392919061337b565b604051602081830303815290604052805190602001209050919050565b6000611b4b611b45611d29565b83611de0565b9050919050565b6000808473ffffffffffffffffffffffffffffffffffffffff163b03611bec57600080611b7f8585611e21565b509150915060006003811115611b9857611b97613408565b5b816003811115611bab57611baa613408565b5b148015611be357508573ffffffffffffffffffffffffffffffffffffffff168273ffffffffffffffffffffffffffffffffffffffff16145b92505050611bfa565b611bf7848484611e7d565b90505b9392505050565b6000806000611c1d60008560001b611fa190919063ffffffff16565b60d01c9150611c3960068560001b611fa190919063ffffffff16565b60d01c9050611c55600c8560001b611ff690919063ffffffff16565b60601c925060008165ffffffffffff1603611c745765ffffffffffff90505b9193909250565b6000611c8a828411848461115b565b905092915050565b6000611ca1828410848461115b565b905092915050565b6000611cc2611cbb856000600161115b565b848461204b565b90509392505050565b60008060ff8360001c169050601f811115611d12576040517fb3512b0c00000000000000000000000000000000000000000000000000000000815260040160405180910390fd5b80915050919050565b366000809150600090509091565b60007f000000000000000000000000000000000000000000000000000000000000000073ffffffffffffffffffffffffffffffffffffffff163073ffffffffffffffffffffffffffffffffffffffff16148015611da557507f000000000000000000000000000000000000000000000000000000000000000046145b15611dd2577f00000000000000000000000000000000000000000000000000000000000000009050611ddd565b611dda6120bb565b90505b90565b60006040517f190100000000000000000000000000000000000000000000000000000000000081528360028201528260228201526042812091505092915050565b60008060006041845103611e665760008060006020870151925060408701519150606087015160001a9050611e5888828585612151565b955095509550505050611e76565b60006002855160001b9250925092505b9250925092565b60008060008573ffffffffffffffffffffffffffffffffffffffff168585604051602401611eac929190613437565b604051602081830303815290604052631626ba7e60e01b6020820180517bffffffffffffffffffffffffffffffffffffffffffffffffffffffff8381831617835250505050604051611efe9190613498565b600060405180830381855afa9150503d8060008114611f39576040519150601f19603f3d011682016040523d82523d6000602084013e611f3e565b606091505b5091509150818015611f5257506020815110155b8015611f965750631626ba7e60e01b7bffffffffffffffffffffffffffffffffffffffffffffffffffffffff191681806020019051810190611f9491906134c4565b145b925050509392505050565b6000601a8260ff161115611fe1576040517f3ba9763600000000000000000000000000000000000000000000000000000000815260040160405180910390fd5b60001960d01b83836008021b16905092915050565b6000600c8260ff161115612036576040517f3ba9763600000000000000000000000000000000000000000000000000000000815260040160405180910390fd5b60001960601b83836008021b16905092915050565b60006120af8460601b61208a8460d01b8660d01b79ffffffffffffffffffffffffffffffffffffffffffffffffffff191661224590919063ffffffff16565b73ffffffffffffffffffffffffffffffffffffffff191661226890919063ffffffff16565b60001c90509392505050565b60007f8b73c3c69bb8fe3d512ecc4cf759cc79239f7b179b0ffacaa9a75d522b39400f7f00000000000000000000000000000000000000000000000000000000000000007f000000000000000000000000000000000000000000000000000000000000000046306040516020016121369594939291906134f1565b60405160208183030381529060405280519060200120905090565b60008060007f7fffffffffffffffffffffffffffffff5d576e7357a4501ddfe92f46681b20a08460001c111561219157600060038592509250925061223b565b6000600188888888604051600081526020016040526040516121b69493929190613560565b6020604051602081039080840390855afa1580156121d8573d6000803e3d6000fd5b505050602060405103519050600073ffffffffffffffffffffffffffffffffffffffff168173ffffffffffffffffffffffffffffffffffffffff160361222c57600060016000801b9350935093505061223b565b8060008060001b935093509350505b9450945094915050565b6000801960d01b8316925060001960d01b821691508160301c8317905092915050565b6000801960a01b8316925060001960601b821691508160601c8317905092915050565b600080fd5b600080fd5b600063ffffffff82169050919050565b6122ae81612295565b81146122b957600080fd5b50565b6000813590506122cb816122a5565b92915050565b6000602082840312156122e7576122e661228b565b5b60006122f5848285016122bc565b91505092915050565b600080fd5b6000610120828403121561231a576123196122fe565b5b81905092915050565b6000819050919050565b61233681612323565b811461234157600080fd5b50565b6000813590506123538161232d565b92915050565b6000819050919050565b61236c81612359565b811461237757600080fd5b50565b60008135905061238981612363565b92915050565b6000806000606084860312156123a8576123a761228b565b5b600084013567ffffffffffffffff8111156123c6576123c5612290565b5b6123d286828701612303565b93505060206123e386828701612344565b92505060406123f48682870161237a565b9150509250925092565b600081519050919050565b600082825260208201905092915050565b60005b8381101561243857808201518184015260208101905061241d565b60008484015250505050565b6000601f19601f8301169050919050565b6000612460826123fe565b61246a8185612409565b935061247a81856020860161241a565b61248381612444565b840191505092915050565b61249781612359565b82525050565b600060408201905081810360008301526124b78185612455565b90506124c6602083018461248e565b9392505050565b600073ffffffffffffffffffffffffffffffffffffffff82169050919050565b60006124f8826124cd565b9050919050565b600061250a826124ed565b9050919050565b61251a816124ff565b811461252557600080fd5b50565b60008135905061253781612511565b92915050565b612546816124ed565b811461255157600080fd5b50565b6000813590506125638161253d565b92915050565b6000806000606084860312156125825761258161228b565b5b600061259086828701612528565b93505060206125a186828701612554565b92505060406125b28682870161237a565b9150509250925092565b60006020820190506125d1600083018461248e565b92915050565b6000819050919050565b60006125fc6125f76125f2846124cd565b6125d7565b6124cd565b9050919050565b600061260e826125e1565b9050919050565b600061262082612603565b9050919050565b61263081612615565b82525050565b600060208201905061264b6000830184612627565b92915050565b6003811061265e57600080fd5b50565b60008135905061267081612651565b92915050565b600080fd5b600080fd5b600080fd5b60008083601f84011261269b5761269a612676565b5b8235905067ffffffffffffffff8111156126b8576126b761267b565b5b6020830191508360018202830111156126d4576126d3612680565b5b9250929050565b6000806000806000608086880312156126f7576126f661228b565b5b600061270588828901612661565b955050602086013567ffffffffffffffff81111561272657612725612290565b5b61273288828901612685565b945094505060406127458882890161237a565b92505060606127568882890161237a565b9150509295509295909350565b60007fff0000000000000000000000000000000000000000000000000000000000000082169050919050565b61279881612763565b82525050565b600081519050919050565b600082825260208201905092915050565b60006127c58261279e565b6127cf81856127a9565b93506127df81856020860161241a565b6127e881612444565b840191505092915050565b6127fc816124ed565b82525050565b61280b81612323565b82525050565b600081519050919050565b600082825260208201905092915050565b6000819050602082019050919050565b61284681612359565b82525050565b6000612858838361283d565b60208301905092915050565b6000602082019050919050565b600061287c82612811565b612886818561281c565b93506128918361282d565b8060005b838110156128c25781516128a9888261284c565b97506128b483612864565b925050600181019050612895565b5085935050505092915050565b600060e0820190506128e4600083018a61278f565b81810360208301526128f681896127ba565b9050818103604083015261290a81886127ba565b9050612919606083018761248e565b61292660808301866127f3565b61293360a0830185612802565b81810360c08301526129458184612871565b905098975050505050505050565b600060208201905061296860008301846127f3565b92915050565b600061297982612603565b9050919050565b6129898161296e565b82525050565b60006020820190506129a46000830184612980565b92915050565b60006129b5826124cd565b9050919050565b6129c5816129aa565b81146129d057600080fd5b50565b6000813590506129e2816129bc565b92915050565b6000602082840312156129fe576129fd61228b565b5b6000612a0c848285016129d3565b91505092915050565b600060208284031215612a2b57612a2a61228b565b5b6000612a3984828501612554565b91505092915050565b60008060408385031215612a5957612a5861228b565b5b6000612a67858286016129d3565b9250506020612a788582860161237a565b9150509250929050565b612a8b81612295565b82525050565b6000602082019050612aa66000830184612a82565b92915050565b600081519050612abb81612363565b92915050565b600060208284031215612ad757612ad661228b565b5b6000612ae584828501612aac565b91505092915050565b7f4e487b7100000000000000000000000000000000000000000000000000000000600052604160045260246000fd5b612b26816129aa565b82525050565b6000602082019050612b416000830184612b1d565b92915050565b6000604082019050612b5c6000830185612b1d565b612b69602083018461248e565b9392505050565b7f4e487b7100000000000000000000000000000000000000000000000000000000600052601160045260246000fd5b6000612baa82612359565b9150612bb583612359565b9250828202612bc381612359565b91508282048414831517612bda57612bd9612b70565b5b5092915050565b6000612bec82612359565b9150612bf783612359565b9250828201905080821115612c0f57612c0e612b70565b5b92915050565b6000819050919050565b612c30612c2b82612323565b612c15565b82525050565b6000612c4182612603565b9050919050565b60008160601b9050919050565b6000612c6082612c48565b9050919050565b6000612c7282612c55565b9050919050565b612c8a612c8582612c36565b612c67565b82525050565b6000819050919050565b612cab612ca682612359565b612c90565b82525050565b612cc2612cbd826124ed565b612c67565b82525050565b6000612cd48289612c1f565b602082019150612ce48288612c79565b601482019150612cf48287612c9a565b602082019150612d048286612c9a565b602082019150612d148285612cb1565b601482019150612d248284612cb1565b601482019150819050979650505050505050565b6000604082019050612d4d60008301856127f3565b612d5a602083018461248e565b9392505050565b600080fd5b600080fd5b60008085851115612d7f57612d7e612d61565b5b83861115612d9057612d8f612d66565b5b6001850283019150848603905094509492505050565b600082905092915050565b600082821b905092915050565b6000612dca8383612da6565b82612dd58135612323565b92506020821015612e1557612e107fffffffffffffffffffffffffffffffffffffffffffffffffffffffffffffffff83602003600802612db1565b831692505b505092915050565b60007fffffffffffffffffffffffffffffffffffffffff00000000000000000000000082169050919050565b6000612e558383612da6565b82612e608135612e1d565b92506014821015612ea057612e9b7fffffffffffffffffffffffffffffffffffffffff00000000000000000000000083601403600802612db1565b831692505b505092915050565b6000612eb382612359565b9150612ebe83612359565b9250828203905081811115612ed657612ed5612b70565b5b92915050565b60008115159050919050565b612ef181612edc565b82525050565b6000606082019050612f0c600083018661248e565b612f19602083018561248e565b612f266040830184612ee8565b949350505050565b7f4e487b7100000000000000000000000000000000000000000000000000000000600052601260045260246000fd5b6000606082019050612f7260008301866127f3565b612f7f60208301856127f3565b612f8c604083018461248e565b949350505050565b7f4e487b7100000000000000000000000000000000000000000000000000000000600052602260045260246000fd5b60006002820490506001821680612fdb57607f821691505b602082108103612fee57612fed612f94565b5b50919050565b6000819050919050565b600061300982612ff4565b915061301483612ff4565b925082820261302281612ff4565b91507f8000000000000000000000000000000000000000000000000000000000000000841460008412161561305a57613059612b70565b5b828205841483151761306f5761306e612b70565b5b5092915050565b600061308182612ff4565b915061308c83612ff4565b92508261309c5761309b612f2e565b5b600160000383147f8000000000000000000000000000000000000000000000000000000000000000831416156130d5576130d4612b70565b5b828205905092915050565b60007fffff00000000000000000000000000000000000000000000000000000000000082169050919050565b60006131188383612da6565b8261312381356130e0565b925060028210156131635761315e7fffff00000000000000000000000000000000000000000000000000000000000083600203600802612db1565b831692505b505092915050565b600061ffff82169050919050565b60006131848261316b565b915061318f8361316b565b9250828201905061ffff8111156131a9576131a8612b70565b5b92915050565b600069ffffffffffffffffffff82169050919050565b6131ce816131af565b81146131d957600080fd5b50565b6000815190506131eb816131c5565b92915050565b6131fa81612ff4565b811461320557600080fd5b50565b600081519050613217816131f1565b92915050565b600080600080600060a086880312156132395761323861228b565b5b6000613247888289016131dc565b955050602061325888828901613208565b945050604061326988828901612aac565b935050606061327a88828901612aac565b925050608061328b888289016131dc565b9150509295509295909350565b600080fd5b600080fd5b600080fd5b600080833560016020038436030381126132c4576132c3613298565b5b80840192508235915067ffffffffffffffff8211156132e6576132e561329d565b5b602083019250600182023603831315613302576133016132a2565b5b509250929050565b600081905092915050565b82818337600083830152505050565b6000613330838561330a565b935061333d838584613315565b82840190509392505050565b6000613356828486613324565b91508190509392505050565b600061336f828486613324565b91508190509392505050565b600061012082019050613391600083018c612802565b61339e602083018b6127f3565b6133ab604083018a61248e565b6133b86060830189612802565b6133c56080830188612802565b6133d260a0830187612802565b6133df60c083018661248e565b6133ec60e0830185612802565b6133fa610100830184612802565b9a9950505050505050505050565b7f4e487b7100000000000000000000000000000000000000000000000000000000600052602160045260246000fd5b600060408201905061344c6000830185612802565b818103602083015261345e8184612455565b90509392505050565b6000613472826123fe565b61347c818561330a565b935061348c81856020860161241a565b80840191505092915050565b60006134a48284613467565b915081905092915050565b6000815190506134be8161232d565b92915050565b6000602082840312156134da576134d961228b565b5b60006134e8848285016134af565b91505092915050565b600060a0820190506135066000830188612802565b6135136020830187612802565b6135206040830186612802565b61352d606083018561248e565b61353a60808301846127f3565b9695505050505050565b600060ff82169050919050565b61355a81613544565b82525050565b60006080820190506135756000830187612802565b6135826020830186613551565b61358f6040830185612802565b61359c6060830184612802565b9594505050505056fea2646970667358221220a1abda22da6acca3594a9ca07916e1d45b5962b998f218c6d3807dc7ecb1879d64736f6c634300081c0033",
  "linkReferences": {},
  "deployedLinkReferences": {}
}