{
  "_format": "hh-sol-artifact-1",
  "contractName": "PaymasterECDSASigner",
  "sourceName": "contracts/PaymasterECDSASigner.sol",
  "abi": [
    {
      "inputs": [
        {
          "internalType": "address",
          "name": "signerAddr",
          "type": "address"
        }
      ],
      "stateMutability": "nonpayable",
      "type": "constructor"
    },
    {
      "inputs": [],
      "name": "InvalidShortString",
      "type": "error"
    },
    {
      "inputs": [
        {
          "internalType": "address",
          "name": "owner",
          "type": "address"
        }
      ],
      "name": "OwnableInvalidOwner",
      "type": "error"
    },
    {
      "inputs": [
        {
          "internalType": "address",
          "name": "account",
          "type": "address"
        }
      ],
      "name": "OwnableUnauthorizedAccount",
      "type": "error"
    },
    {
      "inputs": [
        {
          "internalType": "address",
          "name": "sender",
          "type": "address"
        }
      ],
      "name": "PaymasterUnauthorized",
      "type": "error"
    },
    {
      "inputs": [
        {
          "internalType": "string",
          "name": "str",
          "type": "string"
        }
      ],
      "name": "StringTooLong",
      "type": "error"
    },
    {
      "anonymous": false,
      "inputs": [],
      "name": "EIP712DomainChanged",
      "type": "event"
    },
    {
      "anonymous": false,
      "inputs": [
        {
          "indexed": true,
          "internalType": "address",
          "name": "previousOwner",
          "type": "address"
        },
        {
          "indexed": true,
          "internalType": "address",
          "name": "newOwner",
          "type": "address"
        }
      ],
      "name": "OwnershipTransferred",
      "type": "event"
    },
    {
      "inputs": [
        {
          "internalType": "uint32",
          "name": "unstakeDelaySec",
          "type": "uint32"
        }
      ],
      "name": "addStake",
      "outputs": [],
      "stateMutability": "payable",
      "type": "function"
    },
    {
      "inputs": [],
      "name": "deposit",
      "outputs": [],
      "stateMutability": "payable",
      "type": "function"
    },
    {
      "inputs": [],
      "name": "eip712Domain",
      "outputs": [
        {
          "internalType": "bytes1",
          "name": "fields",
          "type": "bytes1"
        },
        {
          "internalType": "string",
          "name": "name",
          "type": "string"
        },
        {
          "internalType": "string",
          "name": "version",
          "type": "string"
        },
        {
          "internalType": "uint256",
          "name": "chainId",
          "type": "uint256"
        },
        {
          "internalType": "address",
          "name": "verifyingContract",
          "type": "address"
        },
        {
          "internalType": "bytes32",
          "name": "salt",
          "type": "bytes32"
        },
        {
          "internalType": "uint256[]",
          "name": "extensions",
          "type": "uint256[]"
        }
      ],
      "stateMutability": "view",
      "type": "function"
    },
    {
      "inputs": [],
      "name": "entryPoint",
      "outputs": [
        {
          "internalType": "contract IEntryPoint",
          "name": "",
          "type": "address"
        }
      ],
      "stateMutability": "view",
      "type": "function"
    },
    {
      "inputs": [],
      "name": "owner",
      "outputs": [
        {
          "internalType": "address",
          "name": "",
          "type": "address"
        }
      ],
      "stateMutability": "view",
      "type": "function"
    },
    {
      "inputs": [
        {
          "internalType": "enum IPaymaster.PostOpMode",
          "name": "mode",
          "type": "uint8"
        },
        {
          "internalType": "bytes",
          "name": "context",
          "type": "bytes"
        },
        {
          "internalType": "uint256",
          "name": "actualGasCost",
          "type": "uint256"
        },
        {
          "internalType": "uint256",
          "name": "actualUserOpFeePerGas",
          "type": "uint256"
        }
      ],
      "name": "postOp",
      "outputs": [],
      "stateMutability": "nonpayable",
      "type": "function"
    },
    {
      "inputs": [],
      "name": "renounceOwnership",
      "outputs": [],
      "stateMutability": "nonpayable",
      "type": "function"
    },
    {
      "inputs": [],
      "name": "signer",
      "outputs": [
        {
          "internalType": "address",
          "name": "",
          "type": "address"
        }
      ],
      "stateMutability": "view",
      "type": "function"
    },
    {
      "inputs": [
        {
          "internalType": "address",
          "name": "newOwner",
          "type": "address"
        }
      ],
      "name": "transferOwnership",
      "outputs": [],
      "stateMutability": "nonpayable",
      "type": "function"
    },
    {
      "inputs": [],
      "name": "unlockStake",
      "outputs": [],
      "stateMutability": "nonpayable",
      "type": "function"
    },
    {
      "inputs": [
        {
          "components": [
            {
              "internalType": "address",
              "name": "sender",
              "type": "address"
            },
            {
              "internalType": "uint256",
              "name": "nonce",
              "type": "uint256"
            },
            {
              "internalType": "bytes",
              "name": "initCode",
              "type": "bytes"
            },
            {
              "internalType": "bytes",
              "name": "callData",
              "type": "bytes"
            },
            {
              "internalType": "bytes32",
              "name": "accountGasLimits",
              "type": "bytes32"
            },
            {
              "internalType": "uint256",
              "name": "preVerificationGas",
              "type": "uint256"
            },
            {
              "internalType": "bytes32",
              "name": "gasFees",
              "type": "bytes32"
            },
            {
              "internalType": "bytes",
              "name": "paymasterAndData",
              "type": "bytes"
            },
            {
              "internalType": "bytes",
              "name": "signature",
              "type": "bytes"
            }
          ],
          "internalType": "struct PackedUserOperation",
          "name": "userOp",
          "type": "tuple"
        },
        {
          "internalType": "bytes32",
          "name": "userOpHash",
          "type": "bytes32"
        },
        {
          "internalType": "uint256",
          "name": "maxCost",
          "type": "uint256"
        }
      ],
      "name": "validatePaymasterUserOp",
      "outputs": [
        {
          "internalType": "bytes",
          "name": "context",
          "type": "bytes"
        },
        {
          "internalType": "uint256",
          "name": "validationData",
          "type": "uint256"
        }
      ],
      "stateMutability": "nonpayable",
      "type": "function"
    },
    {
      "inputs": [
        {
          "internalType": "address payable",
          "name": "to",
          "type": "address"
        },
        {
          "internalType": "uint256",
          "name": "value",
          "type": "uint256"
        }
      ],
      "name": "withdraw",
      "outputs": [],
      "stateMutability": "nonpayable",
      "type": "function"
    },
    {
      "inputs": [
        {
          "internalType": "address payable",
          "name": "to",
          "type": "address"
        }
      ],
      "name": "withdrawStake",
      "outputs": [],
      "stateMutability": "nonpayable",
      "type": "function"
    }
  ],
  "bytecode": "0x61016060405234801561001157600080fd5b506040516128d63803806128d68339818101604052810190610033919061046b565b806040518060400160405280601681526020017f4d795061796d617374657245434453415369676e6572000000000000000000008152506040518060400160405280600181526020017f31000000000000000000000000000000000000000000000000000000000000008152506100b46000836101e160201b90919060201c565b61012081815250506100d06001826101e160201b90919060201c565b6101408181525050818051906020012060e08181525050808051906020012061010081815250504660a0818152505061010d61023160201b60201c565b608081815250503073ffffffffffffffffffffffffffffffffffffffff1660c08173ffffffffffffffffffffffffffffffffffffffff16815250505050600073ffffffffffffffffffffffffffffffffffffffff168173ffffffffffffffffffffffffffffffffffffffff16036101bc5760006040517f1e4fbdf70000000000000000000000000000000000000000000000000000000081526004016101b391906104a7565b60405180910390fd5b6101cb8161028c60201b60201c565b506101db8161035260201b60201c565b5061099d565b6000602083511015610203576101fc8361039660201b60201c565b905061022b565b82610213836103fe60201b60201c565b60000190816102229190610712565b5060ff60001b90505b92915050565b60007f8b73c3c69bb8fe3d512ecc4cf759cc79239f7b179b0ffacaa9a75d522b39400f60e05161010051463060405160200161027195949392919061080c565b60405160208183030381529060405280519060200120905090565b6000600360009054906101000a900473ffffffffffffffffffffffffffffffffffffffff16905081600360006101000a81548173ffffffffffffffffffffffffffffffffffffffff021916908373ffffffffffffffffffffffffffffffffffffffff1602179055508173ffffffffffffffffffffffffffffffffffffffff168173ffffffffffffffffffffffffffffffffffffffff167f8be0079c531659141344cd1fd0a4f28419497f9722a3daafe3b4186f6b6457e060405160405180910390a35050565b80600260006101000a81548173ffffffffffffffffffffffffffffffffffffffff021916908373ffffffffffffffffffffffffffffffffffffffff16021790555050565b600080829050601f815111156103e357826040517f305a27a90000000000000000000000000000000000000000000000000000000081526004016103da91906108e4565b60405180910390fd5b8051816103ef90610936565b60001c1760001b915050919050565b6000819050919050565b600080fd5b600073ffffffffffffffffffffffffffffffffffffffff82169050919050565b60006104388261040d565b9050919050565b6104488161042d565b811461045357600080fd5b50565b6000815190506104658161043f565b92915050565b60006020828403121561048157610480610408565b5b600061048f84828501610456565b91505092915050565b6104a18161042d565b82525050565b60006020820190506104bc6000830184610498565b92915050565b600081519050919050565b7f4e487b7100000000000000000000000000000000000000000000000000000000600052604160045260246000fd5b7f4e487b7100000000000000000000000000000000000000000000000000000000600052602260045260246000fd5b6000600282049050600182168061054357607f821691505b602082108103610556576105556104fc565b5b50919050565b60008190508160005260206000209050919050565b60006020601f8301049050919050565b600082821b905092915050565b6000600883026105be7fffffffffffffffffffffffffffffffffffffffffffffffffffffffffffffffff82610581565b6105c88683610581565b95508019841693508086168417925050509392505050565b6000819050919050565b6000819050919050565b600061060f61060a610605846105e0565b6105ea565b6105e0565b9050919050565b6000819050919050565b610629836105f4565b61063d61063582610616565b84845461058e565b825550505050565b600090565b610652610645565b61065d818484610620565b505050565b5b818110156106815761067660008261064a565b600181019050610663565b5050565b601f8211156106c6576106978161055c565b6106a084610571565b810160208510156106af578190505b6106c36106bb85610571565b830182610662565b50505b505050565b600082821c905092915050565b60006106e9600019846008026106cb565b1980831691505092915050565b600061070283836106d8565b9150826002028217905092915050565b61071b826104c2565b67ffffffffffffffff811115610734576107336104cd565b5b61073e825461052b565b610749828285610685565b600060209050601f83116001811461077c576000841561076a578287015190505b61077485826106f6565b8655506107dc565b601f19841661078a8661055c565b60005b828110156107b25784890151825560018201915060208501945060208101905061078d565b868310156107cf57848901516107cb601f8916826106d8565b8355505b6001600288020188555050505b505050505050565b6000819050919050565b6107f7816107e4565b82525050565b610806816105e0565b82525050565b600060a08201905061082160008301886107ee565b61082e60208301876107ee565b61083b60408301866107ee565b61084860608301856107fd565b6108556080830184610498565b9695505050505050565b600082825260208201905092915050565b60005b8381101561088e578082015181840152602081019050610873565b60008484015250505050565b6000601f19601f8301169050919050565b60006108b6826104c2565b6108c0818561085f565b93506108d0818560208601610870565b6108d98161089a565b840191505092915050565b600060208201905081810360008301526108fe81846108ab565b905092915050565b600081519050919050565b6000819050602082019050919050565b600061092d82516107e4565b80915050919050565b600061094182610906565b8261094b84610911565b905061095681610921565b92506020821015610996576109917fffffffffffffffffffffffffffffffffffffffffffffffffffffffffffffffff83602003600802610581565b831692505b5050919050565b60805160a05160c05160e051610100516101205161014051611edf6109f760003960006109780152600061093d015260006112430152600061122201526000610f7301526000610fc901526000610ff20152611edf6000f3fe6080604052600436106100c25760003560e01c80638da5cb5b1161007f578063c23a5cea11610059578063c23a5cea1461022a578063d0e30db014610253578063f2fde38b1461025d578063f3fef3a314610286576100c2565b80638da5cb5b146101bd578063b0d691fe146101e8578063bb9fe6bf14610213576100c2565b80630396cb60146100c7578063238ac933146100e357806352b7512c1461010e578063715018a61461014c5780637c627b211461016357806384b0196e1461018c575b600080fd5b6100e160048036038101906100dc91906112d9565b6102af565b005b3480156100ef57600080fd5b506100f8610325565b6040516101059190611347565b60405180910390f35b34801561011a57600080fd5b50610135600480360381019061013091906113f3565b61034f565b604051610143929190611501565b60405180910390f35b34801561015857600080fd5b50610161610372565b005b34801561016f57600080fd5b5061018a600480360381019061018591906115bb565b610386565b005b34801561019857600080fd5b506101a16103a2565b6040516101b497969594939291906117a0565b60405180910390f35b3480156101c957600080fd5b506101d261044c565b6040516101df9190611347565b60405180910390f35b3480156101f457600080fd5b506101fd610476565b60405161020a9190611883565b60405180910390f35b34801561021f57600080fd5b50610228610492565b005b34801561023657600080fd5b50610251600480360381019061024c91906118dc565b610503565b005b61025b610580565b005b34801561026957600080fd5b50610284600480360381019061027f9190611935565b6105f5565b005b34801561029257600080fd5b506102ad60048036038101906102a89190611962565b61067b565b005b6102b7610476565b73ffffffffffffffffffffffffffffffffffffffff16630396cb6034836040518363ffffffff1660e01b81526004016102f091906119b1565b6000604051808303818588803b15801561030957600080fd5b505af115801561031d573d6000803e3d6000fd5b505050505050565b6000600260009054906101000a900473ffffffffffffffffffffffffffffffffffffffff16905090565b6060600061035b6106fb565b61036685858561077a565b91509150935093915050565b61037a6107e0565b6103846000610867565b565b61038e6106fb565b61039b858585858561092d565b5050505050565b6000606080600080600060606103b6610934565b6103be61096f565b46306000801b600067ffffffffffffffff8111156103df576103de6119cc565b5b60405190808252806020026020018201604052801561040d5781602001602082028036833780820191505090505b507f0f00000000000000000000000000000000000000000000000000000000000000959493929190965096509650965096509650965090919293949596565b6000600360009054906101000a900473ffffffffffffffffffffffffffffffffffffffff16905090565b6000734337084d9e255ff0702461cf8895ce9e3b5ff108905090565b61049a6109aa565b6104a2610476565b73ffffffffffffffffffffffffffffffffffffffff1663bb9fe6bf6040518163ffffffff1660e01b8152600401600060405180830381600087803b1580156104e957600080fd5b505af11580156104fd573d6000803e3d6000fd5b50505050565b61050b6109aa565b610513610476565b73ffffffffffffffffffffffffffffffffffffffff1663c23a5cea826040518263ffffffff1660e01b815260040161054b9190611a0a565b600060405180830381600087803b15801561056557600080fd5b505af1158015610579573d6000803e3d6000fd5b5050505050565b610588610476565b73ffffffffffffffffffffffffffffffffffffffff1663b760faf934306040518363ffffffff1660e01b81526004016105c19190611347565b6000604051808303818588803b1580156105da57600080fd5b505af11580156105ee573d6000803e3d6000fd5b5050505050565b6105fd6107e0565b600073ffffffffffffffffffffffffffffffffffffffff168173ffffffffffffffffffffffffffffffffffffffff160361066f5760006040517f1e4fbdf70000000000000000000000000000000000000000000000000000000081526004016106669190611347565b60405180910390fd5b61067881610867565b50565b6106836109aa565b61068b610476565b73ffffffffffffffffffffffffffffffffffffffff1663205c287883836040518363ffffffff1660e01b81526004016106c5929190611a25565b600060405180830381600087803b1580156106df57600080fd5b505af11580156106f3573d6000803e3d6000fd5b505050505050565b6000339050610708610476565b73ffffffffffffffffffffffffffffffffffffffff168173ffffffffffffffffffffffffffffffffffffffff161461077757806040517f327499a700000000000000000000000000000000000000000000000000000000815260040161076e9190611347565b60405180910390fd5b50565b6060600080600036600061078d896109b4565b9350935093509350604051806020016040528060008152506107d085856107bf6107b88e8a8a610a32565b8787610b1e565b1515610be79092919063ffffffff16565b9550955050505050935093915050565b6107e8610c09565b73ffffffffffffffffffffffffffffffffffffffff1661080661044c565b73ffffffffffffffffffffffffffffffffffffffff161461086557610829610c09565b6040517f118cdaa700000000000000000000000000000000000000000000000000000000815260040161085c9190611347565b60405180910390fd5b565b6000600360009054906101000a900473ffffffffffffffffffffffffffffffffffffffff16905081600360006101000a81548173ffffffffffffffffffffffffffffffffffffffff021916908373ffffffffffffffffffffffffffffffffffffffff1602179055508173ffffffffffffffffffffffffffffffffffffffff168173ffffffffffffffffffffffffffffffffffffffff167f8be0079c531659141344cd1fd0a4f28419497f9722a3daafe3b4186f6b6457e060405160405180910390a35050565b5050505050565b606061096a60007f0000000000000000000000000000000000000000000000000000000000000000610c1190919063ffffffff16565b905090565b60606109a560017f0000000000000000000000000000000000000000000000000000000000000000610c1190919063ffffffff16565b905090565b6109b26107e0565b565b6000803660003660006109c687610cc1565b9150915081816000906006926109de93929190611a58565b906109e99190611ad7565b60d01c8282600690600c92610a0093929190611a58565b90610a0b9190611ad7565b60d01c8383600c908092610a2193929190611a58565b955095509550955050509193509193565b6000610b157f0c330b34f0aad8cab1ae5a4241b0d75388786a99fffb1a39c5ce8dec5a570067856000016020810190610a6b9190611935565b8660200135878060400190610a809190611b45565b604051610a8e929190611be7565b6040518091039020888060600190610aa69190611b45565b604051610ab4929190611be7565b604051809103902089608001358a60a001358b60c00135610ad48d610d15565b610add8e610d81565b8d8d604051602001610afa9c9b9a99989796959493929190611c21565b60405160208183030381529060405280519060200120610ded565b90509392505050565b6000806000610b718686868080601f016020809104026020016040519081016040528093929190818152602001838380828437600081840152601f19601f82011690508083019250505050505050610e07565b50915091508173ffffffffffffffffffffffffffffffffffffffff16610b95610325565b73ffffffffffffffffffffffffffffffffffffffff16148015610bdc575060006003811115610bc757610bc6611cdb565b5b816003811115610bda57610bd9611cdb565b5b145b925050509392505050565b6000610c00610bf98560006001610e63565b8484610e7d565b90509392505050565b600033905090565b606060ff60001b8314610c2e57610c2783610eed565b9050610cbb565b818054610c3a90611d39565b80601f0160208091040260200160405190810160405280929190818152602001828054610c6690611d39565b8015610cb35780601f10610c8857610100808354040283529160200191610cb3565b820191906000526020600020905b815481529060010190602001808311610c9657829003601f168201915b505050505090505b92915050565b3660006034838060e00190610cd69190611b45565b905010610d0357828060e00190610ced9190611b45565b6034908092610cfe93929190611a58565b610d0c565b610d0b610f61565b5b91509150915091565b60006034828060e00190610d299190611b45565b905010610d6557818060e00190610d409190611b45565b601490602492610d5293929190611a58565b90610d5d9190611d96565b60801c610d68565b60005b6fffffffffffffffffffffffffffffffff169050919050565b60006034828060e00190610d959190611b45565b905010610dd157818060e00190610dac9190611b45565b602490603492610dbe93929190611a58565b90610dc99190611d96565b60801c610dd4565b60005b6fffffffffffffffffffffffffffffffff169050919050565b6000610e00610dfa610f6f565b83611026565b9050919050565b60008060006041845103610e4c5760008060006020870151925060408701519150606087015160001a9050610e3e88828585611067565b955095509550505050610e5c565b60006002855160001b9250925092505b9250925092565b6000610e6e8461115b565b82841802821890509392505050565b6000610ee18460601b610ebc8460d01b8660d01b79ffffffffffffffffffffffffffffffffffffffffffffffffffff191661116790919063ffffffff16565b73ffffffffffffffffffffffffffffffffffffffff191661118a90919063ffffffff16565b60001c90509392505050565b60606000610efa836111ad565b90506000602067ffffffffffffffff811115610f1957610f186119cc565b5b6040519080825280601f01601f191660200182016040528015610f4b5781602001600182028036833780820191505090505b5090508181528360208201528092505050919050565b366000809150600090509091565b60007f000000000000000000000000000000000000000000000000000000000000000073ffffffffffffffffffffffffffffffffffffffff163073ffffffffffffffffffffffffffffffffffffffff16148015610feb57507f000000000000000000000000000000000000000000000000000000000000000046145b15611018577f00000000000000000000000000000000000000000000000000000000000000009050611023565b6110206111fd565b90505b90565b60006040517f190100000000000000000000000000000000000000000000000000000000000081528360028201528260228201526042812091505092915050565b60008060007f7fffffffffffffffffffffffffffffff5d576e7357a4501ddfe92f46681b20a08460001c11156110a7576000600385925092509250611151565b6000600188888888604051600081526020016040526040516110cc9493929190611e11565b6020604051602081039080840390855afa1580156110ee573d6000803e3d6000fd5b505050602060405103519050600073ffffffffffffffffffffffffffffffffffffffff168173ffffffffffffffffffffffffffffffffffffffff160361114257600060016000801b93509350935050611151565b8060008060001b935093509350505b9450945094915050565b60008115159050919050565b6000801960d01b8316925060001960d01b821691508160301c8317905092915050565b6000801960a01b8316925060001960601b821691508160601c8317905092915050565b60008060ff8360001c169050601f8111156111f4576040517fb3512b0c00000000000000000000000000000000000000000000000000000000815260040160405180910390fd5b80915050919050565b60007f8b73c3c69bb8fe3d512ecc4cf759cc79239f7b179b0ffacaa9a75d522b39400f7f00000000000000000000000000000000000000000000000000000000000000007f00000000000000000000000000000000000000000000000000000000000000004630604051602001611278959493929190611e56565b60405160208183030381529060405280519060200120905090565b600080fd5b600080fd5b600063ffffffff82169050919050565b6112b68161129d565b81146112c157600080fd5b50565b6000813590506112d3816112ad565b92915050565b6000602082840312156112ef576112ee611293565b5b60006112fd848285016112c4565b91505092915050565b600073ffffffffffffffffffffffffffffffffffffffff82169050919050565b600061133182611306565b9050919050565b61134181611326565b82525050565b600060208201905061135c6000830184611338565b92915050565b600080fd5b6000610120828403121561137e5761137d611362565b5b81905092915050565b6000819050919050565b61139a81611387565b81146113a557600080fd5b50565b6000813590506113b781611391565b92915050565b6000819050919050565b6113d0816113bd565b81146113db57600080fd5b50565b6000813590506113ed816113c7565b92915050565b60008060006060848603121561140c5761140b611293565b5b600084013567ffffffffffffffff81111561142a57611429611298565b5b61143686828701611367565b9350506020611447868287016113a8565b9250506040611458868287016113de565b9150509250925092565b600081519050919050565b600082825260208201905092915050565b60005b8381101561149c578082015181840152602081019050611481565b60008484015250505050565b6000601f19601f8301169050919050565b60006114c482611462565b6114ce818561146d565b93506114de81856020860161147e565b6114e7816114a8565b840191505092915050565b6114fb816113bd565b82525050565b6000604082019050818103600083015261151b81856114b9565b905061152a60208301846114f2565b9392505050565b6003811061153e57600080fd5b50565b60008135905061155081611531565b92915050565b600080fd5b600080fd5b600080fd5b60008083601f84011261157b5761157a611556565b5b8235905067ffffffffffffffff8111156115985761159761155b565b5b6020830191508360018202830111156115b4576115b3611560565b5b9250929050565b6000806000806000608086880312156115d7576115d6611293565b5b60006115e588828901611541565b955050602086013567ffffffffffffffff81111561160657611605611298565b5b61161288828901611565565b94509450506040611625888289016113de565b9250506060611636888289016113de565b9150509295509295909350565b60007fff0000000000000000000000000000000000000000000000000000000000000082169050919050565b61167881611643565b82525050565b600081519050919050565b600082825260208201905092915050565b60006116a58261167e565b6116af8185611689565b93506116bf81856020860161147e565b6116c8816114a8565b840191505092915050565b6116dc81611387565b82525050565b600081519050919050565b600082825260208201905092915050565b6000819050602082019050919050565b611717816113bd565b82525050565b6000611729838361170e565b60208301905092915050565b6000602082019050919050565b600061174d826116e2565b61175781856116ed565b9350611762836116fe565b8060005b8381101561179357815161177a888261171d565b975061178583611735565b925050600181019050611766565b5085935050505092915050565b600060e0820190506117b5600083018a61166f565b81810360208301526117c7818961169a565b905081810360408301526117db818861169a565b90506117ea60608301876114f2565b6117f76080830186611338565b61180460a08301856116d3565b81810360c08301526118168184611742565b905098975050505050505050565b6000819050919050565b600061184961184461183f84611306565b611824565b611306565b9050919050565b600061185b8261182e565b9050919050565b600061186d82611850565b9050919050565b61187d81611862565b82525050565b60006020820190506118986000830184611874565b92915050565b60006118a982611306565b9050919050565b6118b98161189e565b81146118c457600080fd5b50565b6000813590506118d6816118b0565b92915050565b6000602082840312156118f2576118f1611293565b5b6000611900848285016118c7565b91505092915050565b61191281611326565b811461191d57600080fd5b50565b60008135905061192f81611909565b92915050565b60006020828403121561194b5761194a611293565b5b600061195984828501611920565b91505092915050565b6000806040838503121561197957611978611293565b5b6000611987858286016118c7565b9250506020611998858286016113de565b9150509250929050565b6119ab8161129d565b82525050565b60006020820190506119c660008301846119a2565b92915050565b7f4e487b7100000000000000000000000000000000000000000000000000000000600052604160045260246000fd5b611a048161189e565b82525050565b6000602082019050611a1f60008301846119fb565b92915050565b6000604082019050611a3a60008301856119fb565b611a4760208301846114f2565b9392505050565b600080fd5b600080fd5b60008085851115611a6c57611a6b611a4e565b5b83861115611a7d57611a7c611a53565b5b6001850283019150848603905094509492505050565b600082905092915050565b60007fffffffffffff000000000000000000000000000000000000000000000000000082169050919050565b600082821b905092915050565b6000611ae38383611a93565b82611aee8135611a9e565b92506006821015611b2e57611b297fffffffffffff000000000000000000000000000000000000000000000000000083600603600802611aca565b831692505b505092915050565b600080fd5b600080fd5b600080fd5b60008083356001602003843603038112611b6257611b61611b36565b5b80840192508235915067ffffffffffffffff821115611b8457611b83611b3b565b5b602083019250600182023603831315611ba057611b9f611b40565b5b509250929050565b600081905092915050565b82818337600083830152505050565b6000611bce8385611ba8565b9350611bdb838584611bb3565b82840190509392505050565b6000611bf4828486611bc2565b91508190509392505050565b600065ffffffffffff82169050919050565b611c1b81611c00565b82525050565b600061018082019050611c37600083018f6116d3565b611c44602083018e611338565b611c51604083018d6114f2565b611c5e606083018c6116d3565b611c6b608083018b6116d3565b611c7860a083018a6116d3565b611c8560c08301896114f2565b611c9260e08301886116d3565b611ca06101008301876114f2565b611cae6101208301866114f2565b611cbc610140830185611c12565b611cca610160830184611c12565b9d9c50505050505050505050505050565b7f4e487b7100000000000000000000000000000000000000000000000000000000600052602160045260246000fd5b7f4e487b7100000000000000000000000000000000000000000000000000000000600052602260045260246000fd5b60006002820490506001821680611d5157607f821691505b602082108103611d6457611d63611d0a565b5b50919050565b60007fffffffffffffffffffffffffffffffff0000000000000000000000000000000082169050919050565b6000611da28383611a93565b82611dad8135611d6a565b92506010821015611ded57611de87fffffffffffffffffffffffffffffffff0000000000000000000000000000000083601003600802611aca565b831692505b505092915050565b600060ff82169050919050565b611e0b81611df5565b82525050565b6000608082019050611e2660008301876116d3565b611e336020830186611e02565b611e4060408301856116d3565b611e4d60608301846116d3565b95945050505050565b600060a082019050611e6b60008301886116d3565b611e7860208301876116d3565b611e8560408301866116d3565b611e9260608301856114f2565b611e9f6080830184611338565b969550505050505056fea2646970667358221220d58914671ed206573f6ea3371c1963f4a7367067a4ae8933e41c36a09ff4c31764736f6c634300081c0033",
  "linkReferences": {},
  "deployedLinkReferences": {}
}